:020000040800F2
:10000000B80C0020A5710008B1700008B37000089A
:10001000B5700008B7700008B97000080000000053
:10002000000000000000000000000000BB7000089D
:10003000BD70000800000000BF700008C17000081B
:10004000CF710008D3710008D7710008DB71000878
:10005000DF710008E3710008E7710008EB71000828
:10006000EF710008F3710008F7710008FB710008D8
:10007000FF71000803720008077200080B72000885
:10008000C5700008CB7000080F72000813720008DA
:10009000D1700008D5700008DD70000817720008E4
:1000A0001B7200081F7200082372000827720008E4
:1000B0002B7200082F720008337200083772000894
:1000C0003B7200083F720008437200084772000844
:1000D0004B7200084F720008DF700008537200086E
:1000E000577200085B7200085F72000863720008B4
:1000F000677200086B7200086F7200087372000864
:10010000777200087B7200087F7200088372000813
:10011000877200088B7200088F72000893720008C3
:10012000977200089B7200089F720008A372000873
:10013000A77200080000000000000000AB72000879
:10014000AF720008B3720008B7720008BB720008F3
:10015000BF720008C3720008C7720008CB720008A3
:10016000CF720008D3720008D7720008DB72000853
:10017000DF720008E37200080000000000000000C9
:10018000E7720008EB72000800F5E0700268914227
:1001900003D343681A44914202D380680028F5D102
:1001A0007047DFF80817086890B94FF4805048602E
:1001B0004FF480324FF0FF30C86008610420DFF850
:1001C000F0368A604861C3F8BC01DFF8E8060860D1
:1001D0000120704701F1080313F0070F0EBF002341
:1001E000C3F1080303F007031944D21A8161C26006
:1001F00042F001034B60091D4FF0280C41F802C08A
:10020000DFF8A8261369C36170472DE9FC4B074648
:1002100001F1080010F0070F0FBF8946C0F1080078
:1002200000F0070001EB000902F1080111F0070FCF
:1002300006D002F10800C0F1080000F007000244F7
:100240001546A5EB090009EB0306A0EB030B43F0F1
:100250000303C9F80430AE4228BF00F055FF2879E7
:10026000C10758BF00F050FFBBF1100F38BF00F0BE
:100270004BFFB869854208D1F9688B44C7F80CB0C8
:10028000BE614BF00100706051E1786985420AD18E
:10029000B9688B44C7F808B07E614BF0010070600C
:1002A00046F80BB043E1686800F00301012940F013
:1002B000AC80C008C0000190C0081F2839D8AC68C5
:1002C000D5F80C800090454508BF00F01DFFA54201
:1002D00008BF00F019FF68680099C008C000B0EBC3
:1002E000C10F18BF00F010FF009907F1280000EBC4
:1002F000C100844206D039698C42C0F08180E26836
:10030000AA427DD1A04506D10098396801238340D7
:100310009943396076E0804506D0396988456FD3C6
:10032000D8F80800A8426BD1C4F80C80C8F808407F
:1003300068E0EC68D5F81880AC420CD0A868396940
:10034000884223D3C268AA4204BFA168A9421DD132
:10035000C460A0601CE005F114010C6834B905F11B
:1003600010010C68A4B101E011460C6804F11402FC
:100370001068002802BF04F1100210680028F3D1B1
:100380003869814202D300220A6001E000F0BCFE1D
:10039000B8F1000F36D0E96907F5987000EB8100DD
:1003A0000268954208D10460A4B9E869796801221D
:1003B00082409143796025E03869804508D3D8F8B8
:1003C0001010A94214BFC8F81440C8F8104001E04A
:1003D00000F09AFEB4B139698C4211D3C4F8188088
:1003E000286928B1884226BF2061846100F08CFE14
:1003F000686938B13969884202D36061846101E07B
:1004000000F082FE01996D188B4469684908490023
:1004100069604BF0010070604FEADB0446F80BB0F6
:100420001F2C23D807F1280000EBC4084546BBF178
:10043000100F38BF00F068FE386820FA04F1CA07D0
:1004400005D4012101FA04F404433C6007E0D8F824
:100450000800396988422CBF054600F055FEC8F8EF
:100460000860EE60B560C6F80C8060E05FEA1B20B3
:1004700008BF002123D0B0F5803F28BF1F211ED226
:10048000A0F58072120C02F008029040A0F5805195
:10049000090C01F004018840A0F580431B0CC2F157
:1004A0000E0203F00203521AD21A984002EBD03225
:1004B000D01D2BFA00F101F0010101EB4201F161C5
:1004C000002307F59872736102EB810033617A684B
:1004D00022FA01F3DC0707D4012303FA01F11143E7
:1004E00079600660B0611DE002681F291DBF4908E0
:1004F000C1F119010BFA01F1594600E002465068BA
:10050000C008C000584516D002F11003C80F03EB15
:100510008003490018680028F0D13869834204D369
:100520001E60B261F660B66001E000F0EDFD09F119
:100530000800BDE8F68B396990688A4228BF884276
:10054000F3D3C6609660B060F2600020B061EEE761
:100550002DE9FE4F04468B46A5692E4690469946E6
:100560003146FFF711FE0268416802EB010AAAF169
:10057000270111F007000EBF0021C1F1080101F0B1
:1005800007010AEB0100A0F12F0706F110018F42CD
:1005900038BF374607F11802002101920091A8F1F7
:1005A000280259462046FFF715FE07F1080010F013
:1005B000070F18BF00F0A8FD1B20786007F10801A5
:1005C00004F5E07090E80C5081E80C50C0F800B0E1
:1005D000C0F80480C0F80C9081600722019800994F
:1005E00000E0001D491C00F1080353454260F8D3A8
:1005F0000129D8BF00F088FDB74200F09580BF1BED
:10060000301D321DC15949084900D15147F0010040
:1006100070604FEAD70BF751BBF11F0F21D804EBE5
:10062000CB0000F12805A846102F38BF00F06CFD64
:10063000206820FA0BF1CA0705D4012101FA0BF159
:100640000843206006E0A868216988422CBF8046E4
:1006500000F05AFDAE60C8F80C60C6F80880F5607E
:100660006FE0380A08BF002123D0B0F5803F28BFD3
:100670001F211ED2A0F58072120C02F008029040D9
:10068000A0F58051090C01F004018840A0F58043D9
:100690001B0CC2F10E0203F00203521AD21A984048
:1006A00002EBD032D01D27FA00F101F0010101EB7D
:1006B000420104EB8102002302F59870F16173613D
:1006C0003361626822FA01F3DB0707D4012303FADE
:1006D00001F1114361600660B0611DE002681F29ED
:1006E0001DBF4908C1F1190107FA01F1394600E0BF
:1006F00002465068C008C000B84216D002F110038C
:10070000C80F03EB8003490018680028F0D1206966
:10071000834204D31E60B261F660B56011E003B09D
:10072000BDE8F04F00F0F0BC0BE0216990688A4210
:1007300028BF8842F3D3C6609560B060F2600020A5
:10074000B06103B0BDE8F08F2DE9F041574F054689
:100750003868884608B9FFF724FDB96801EB08003E
:100760002F30491E20EA010188457DD205F5D87653
:10077000B06828B1326889188A4275D2884273D32A
:1007800000F002FD01001CBF0C6811F1010F6BD0DD
:100790003068201805F5D87230605368984238BF29
:1007A00018467060A86960BB286908B1814200D210
:1007B0002961316174610020F0614FF0FF303A68C7
:1007C0006A62286205F128020020D260926002F17C
:1007D000080757611761801C10322028F5D3344870
:1007E000854208BFA4F1280228D055F8040CC0089F
:1007F00005EBC002A2F108000A19121A283A0146B4
:100800001CE005F5E070024600E092687AB31368D8
:1008100057681F44B942F8D1137B1F0727D4AB692F
:100820001768BB4223D3D2F804C06744BB421ED230
:10083000A444C2F804C0E868A96922182846FFF752
:10084000C9FC1FE08068C0B103689342FAD1027B03
:10085000130712D4026801604368E41844604346F9
:100860002846BDE8F041D0E40020BDE8F0812A69C7
:10087000914238BF29610A19E5E70023224628463C
:10088000FFF766FEE8688045EED2A0EB0800A96994
:10089000E86001EB0802AA6140F00100506048F0F6
:1008A0000300486001F10800BDE8F08188080020DD
:1008B000F80000206859883C2DE9F84F002589464A
:1008C000090AC9F1000B08BF002323D0B1F5803F0E
:1008D00028BF1F231ED2A1F58072120C02F008025D
:1008E0009140A1F580531B0C03F004039940A1F53E
:1008F0008044240CC2F10E0204F00204D21A121B2E
:10090000A14002EBD132D11D29FA01F303F001031A
:1009100003EB4203074607F5987858F8230030B3F5
:100920001F2B0FBF4C465C08C4F1190409FA04F4EC
:10093000AC46594600E064004268D208D200A2EBFF
:1009400009028A4203D21100054600F0698142691A
:1009500010304FEAD47B50F82B00002A1CBF824293
:1009600094460028E7D18B466046B0BBBDBB012250
:1009700002FA03F35B005842796803430B4000F02E
:100980004E81584203405B1E180B00F01000C3401C
:10099000590901F00801CB409A0802F00402D34043
:1009A0005C0804F002040818E3401018C3F3400682
:1009B00020183044F3401B1858F823000DE0084677
:1009C0004168C908C900A1EB090159453CBF8B46E4
:1009D000054601690029F2D140690028F0D1002DB7
:1009E00000F01D81B868A0EB0900834580F01781F5
:1009F00039698D42C0F011816868C008C00009EBF8
:100A00000B01884218BF00F07FFB05EB0906B542D9
:100A100080F00381EC68D5F818A0AC420CD0A8682F
:100A20003969884223D3C268AA4204BFA168A94297
:100A30001DD1C460A0601CE005F114010C6834B93C
:100A400005F110010C68A4B101E011460C6804F135
:100A500014021068002802BF04F110021068002878
:100A6000F3D13869814202D300220A6001E000F02C
:100A70004BFBBAF1000F36D0E86908EB8000016843
:100A80008D4209D10460200014D1E86979680122FF
:100A900082409143796026E03869824508D3DAF8CC
:100AA0001010A94214BFCAF81440CAF8104001E05F
:100AB00000F02AFBBCB13869844212D3C4F818A0F4
:100AC000286930B13969884226BF2061846100F00D
:100AD0001BFB686938B13969884202D3606184615F
:100AE00001E000F011FBBBF1100F0CD2D94449F02A
:100AF0000300291D6860281D51F8092042F00102F9
:100B000040F8092088E049F0030068604BF00100DC
:100B100070604FEADB0046F80BB01F281DD807EBCA
:100B2000C00101F12804396821FA00F2D307A34675
:100B300005D4012202FA00F00843386006E0A068FC
:100B4000396988422CBF834600F0DEFAA660CBF8F4
:100B50000C60C6F808B0F4605EE05FEA1B2008BFD6
:100B6000002123D0B0F5803F28BF1F211ED2A0F561
:100B70008072120C02F008029040A0F58051090C1E
:100B800001F004018840A0F580431B0CC2F10E0265
:100B900003F00203521AD21A984002EBD032D01D51
:100BA0002BFA00F101F0010101EB4201F161002299
:100BB0007261326108EB81007A6822FA01F4E3077E
:100BC00007D4012404FA01F1114379600660B06191
:100BD0001DE002681F291DBF4908C1F119010BFA68
:100BE00001F1594600E002465068C008C00058456F
:100BF00018D002F11003C80F03EB800349001868F6
:100C00000028F0D13869834204D31E60B261F660D7
:100C1000B66001E000F078FA14E100F075FA0EE138
:100C20008B46A2E6396990688A4228BF8842F1D390
:100C3000C6609660B060F2600020B061ECE72DE91C
:100C4000F84F06468846716848420140491E080B25
:100C500000F01000C1404A0902F00802D1408B08A0
:100C600003F00403D9404D0805F002051018E940CF
:100C70001818C1F34004281806F5987A2044E1407A
:100C800009185AF821104868C008C0000D46A0EBAA
:100C9000080909E001464868C008C000A0EB080048
:100CA00048453CBF81460D4608690028F2D1496994
:100CB0000029F0D130698542C0F0BF806968C90859
:100CC00008EB090BC900594518BF00F01DFA05EBE8
:100CD00008008542009080F0B080EF68AC69AF42B8
:100CE0000CD0A8683169884223D3C268AA4204BFE5
:100CF000B968A9421DD1C760B8601CE005F11401B4
:100D00000F6837B905F110010F68A7B101E011466E
:100D10000F6807F114021068002802BF07F11002E3
:100D200010680028F3D13069814202D300220A60A2
:100D300001E000F0E9F9002C31D0E8690AEB80000D
:100D400001688D4208D107608FB9E8697168012296
:100D500082409143716022E03069844205D3216969
:100D6000A94214BF6761276101E000F0CDF9B7B176
:100D70003069874211D3BC61286930B1316988423A
:100D800026BF3861876100F0BFF9686938B1316901
:100D9000884202D37861876101E000F0B5F9B9F1CA
:100DA000100F0BD24BF00300291D6860281D51F86D
:100DB0000B2042F0010240F80B203DE048F0030117
:100DC0002A1D696049F0010042F80800009941F8C5
:100DD0000990D6F808804FEAD80BBBF1200F28BF46
:100DE00000F092F9B8F1000F22D006EBCB00776942
:100DF00000F12804A246B8F1100F38BF00F084F9C2
:100E0000306820FA0BF1CA0705D4012101FA0BF171
:100E10000843306006E0A068316988422CBF8246F2
:100E200000F072F9A760CAF80C70C7F808A0FC605F
:100E3000C6F808900098706104E000F065F90020A1
:100E4000BDE8F28F05F10800BDE8F28F2DE9FE4FF5
:100E50000546AFF30080F52DDFF8A86280F004812D
:100E60000B2D31BF10250B35ED08ED003068EC0877
:100E7000E04010F0030F46D0C04300F00100041919
:100E800006F1280000EBC408E700D8F808506868AD
:100E9000C008C000B84218BF00F036F9D5F8089075
:100EA000454508BF00F030F94D4508BF00F02CF96A
:100EB0006868C008C000B84218BF00F025F9C845EE
:100EC00007D13068012101FA04F420EA04043460F7
:100ED0000DE03069814508D3D9F80C10A94204D13E
:100EE000C8F80890C9F80C8001E000F00DF947F04F
:100EF0000300291D6860281DCA5942F00102C25131
:100F000005F10804F8E0B168A94280F0BE8000282D
:100F100000F0A1804FF0010808FA04F1490000FA3E
:100F200004F4484201430C4060420440641E200B1C
:100F300000F01000C440610901F00801CC40A20893
:100F400002F00402D440630803F002030818DC40F6
:100F50001018C4F3400718183818FC40241806F17C
:100F6000280000EBC40AE700DAF80890D9F804007A
:100F7000C008C000B84218BF00F0C6F8D9F808B0E1
:100F8000D14508BF00F0C0F8D94508BF00F0BCF853
:100F9000D9F80400C008C000B84218BF00F0B4F887
:100FA000DA4506D1306808FA04F420EA0404346013
:100FB0000DE031698B4508D3DBF80C00484504D1BE
:100FC000CAF808B0CBF80CA001E000F09DF87F1B38
:100FD00045F0030009F10402C9F8040047F00101DB
:100FE000515109EB05020192D751B4684FEAD40A76
:100FF000BAF1200F28BF00F087F834B3CDF800A075
:1010000006F12800756900EBCA0AD346102C38BFD8
:1010100000F07AF83168009821FA00F2D30704D47E
:1010200008FA00F00843306007E0DAF80800316998
:1010300088422CBF834600F067F8CAF80850CBF806
:101040000C50C5F808B0C5F80CA0B76009F1080449
:101050000198706150E07068C0B329463046FFF7D0
:10106000EEFD040011D047E015F1400F28BF4FF00E
:10107000FF350AD20B35ED087068ED0028B129461E
:101080003046FFF719FC040036D1B068A8421DD3E2
:10109000411B726910290AD350197061B16041F087
:1010A00001034360415045F0030555600BE000210A
:1010B000B1607161131D40F003015160111D1C5896
:1010C00044F001040C5002F1080415E0F068854278
:1010D0000DD2401BB169F0604A19B26140F00100C5
:1010E000506045F003054D6001F1080404E0294615
:1010F0003046FFF729FB0446AFF300802046FFF798
:1011000020BB0000F8000020012000F053B8F0B42C
:101110000246106895681318506803EB5004C00726
:101120001DD54D441BE013F8017B05F8017B491EDA
:10113000F9D1A0B1B60813F8011B06F00306032E7F
:1011400008BF13F8016B01EB06214942801C2944BA
:1011500005D011F8016B05F8016B401EF9D1A342CF
:101160000ED013F8016B16F0030104BF13F8011B36
:10117000C91C30090F28DAD113F8010B0F30D6E75C
:10118000F0BC02F10C0070470749086808B1002064
:1011900070470648C008C00008600549C908C90072
:1011A000091A0160704700BFB0080020BF0C002082
:1011B000B80E002080B5AFF30080024A110018205D
:1011C000ABBEFBE7260002002DE9F04F0FF2A41C96
:1011D000A1B0DCE90089CDE900892A9DDFF8109CE7
:1011E000049100248DF843500D944FF0FF3882464F
:1011F00016461F460FE0B3462C461BF8011B049809
:10120000D0470028049000F0A2800D98401C641E76
:101210000D90F2D176193078252808D100210022CE
:101220000791089209910A920B910C920DE06A467F
:101230004146304600F0D4FF050001D10D98A1E0F1
:10124000D9D50125E6E741F0010116F8010F202864
:10125000F9D023280CD02B2804D02D2805D03028F5
:1012600009D076E041F00201EFE741F00401ECE73C
:1012700041F00801E9E741F01001E6E70F9209E0CB
:101280000F98484505DA00EB800402EB4402303A3F
:101290000F92761C3278A2F130000A28F0D3307811
:1012A0002E2818BFCDF8388022D116F8010F2A2831
:1012B00007D138683860761C50F8042B38600E92DD
:1012C00016E02D280CBF761C002000220E920AE0AA
:1012D00040B90E9A4A4505DA02EB820403EB440357
:1012E000303B0E93761C3378A3F130020A2AEFD3F9
:1012F000ADF8401021A0317800F07CFF08B116F85D
:10130000010B8DF842009DF84200682804D1307826
:1013100068280AD1622105E06C2804BF30786C2867
:1013200003D171218DF84210761C12A806903A461E
:1013300016F8013B02A9504600F064F838B912AA29
:1013400002A9504600F0CAF900287FF564AF404674
:1013500018E02A2892D13A683A6052F8040B3A60B1
:1013600000280F9003D540420F9041F00401761CF5
:1013700095E700000000000000000000686A6C743F
:101380007A4C000021B0BDE8F08F622820D0682898
:1013900011D06A2803D06C2827D0712825D108687D
:1013A000C01D20F007000860D0E900230830086065
:1013B000194610467047002A0A680A60106803D070
:1013C000121D0A6000B217E0121D0A6080B217E019
:1013D000002A0A680A60106803D0121D0A6040B231
:1013E0000AE0121D0A60C0B20AE0002A0A680A6018
:1013F000106803D0121D0A60C1177047121D0A60E1
:10140000002170477CB50D4611461C462E69B4F18B
:10141000250200F051811C3A00F08680121F022A3A
:1014200040F282800E3A00F00B81521F5AD0093AE6
:101430007AD0921E16D0521E35D0521E022A73D96F
:10144000121F30D0521F00F09A80521E4AD0521EF6
:1014500000F0E480D21E00F00181921E42D0D21E24
:1014600040D02FE195F83A406C2C09D06869421CB5
:101470006A610A680A6052F8043B0A6033542BE13F
:101480000A680A6052F8043B0A6000930022019245
:101490004FF0FF332B636A46294600F09AF9002883
:1014A00040F11A8105E195F83A000122FFF76DFF3E
:1014B000C5E900010023994204DA6869411C6961A9
:1014C0002D220DE0288F810704D56869411C6961D0
:1014D0002B2205E0C00722D56869411C69612022E2
:1014E00032541CE095F83A000022FFF74EFFC5E9A0
:1014F000000195F83800010711D5D5E90023002037
:10150000834208BF82420AD044F02000782806D1E6
:10151000686930213154401C421C6A6134542146B0
:1015200068693044E86087E00868C01D20F0070063
:101530000860D0E9002308300860C5E90023D5E938
:101540000001C80F04D06869411C69612D220DE0BB
:10155000288F810704D56869411C69612B2205E049
:10156000C00704D56869411C69612022325468694A
:101570003044E8602146284600F03AFAACE005F134
:101580003A02507820B14FF0FF340FF6343074E057
:101590001078622808D0682824D06A2812D06C28D5
:1015A0002ED071280ED02BE00A680A6052F8040B86
:1015B0000A6020B94FF0FF340FF61C305DE0E96A95
:1015C000017089E00A680A6052F8040B0A6020B9C9
:1015D0004FF0FF340FF600304FE0EA6AD317C0E94E
:1015E000002379E00A680A6052F8040B0A6020B907
:1015F0004FF0FF340FF6E0203FE0E96A01806BE036
:101600000A680A6052F8040B0A6020B94FF0FF34F0
:101610000FF6C42031E0E96A01605DE00A680A6003
:1016200052F8040B0A60002120F0000221F0FF3381
:10163000C5E90023EE607821284600F02DF94BE043
:101640006C2285F83A200B680B6053F8042B0B6072
:1016500052BB4FF0FF340FF6B4200EE095F83A205D
:101660006C2AF0D00868086050F8044B0860EC6001
:101670003CB94FF0FF340FF6782000F0D5FD201A6A
:1016800076BD2E6B002E04D5204600F0EDFD0446FD
:1016900008E032460021204600F00EFE002814BF6C
:1016A000041B3446AC6117E0294600F092F800288C
:1016B00012D54FF0FF3076BD6869411C6961252263
:1016C000325409E06969481C68612522725421007E
:1016D00002D0431C6B613454002076BD2DE9F041EB
:1016E0000E4605469046726B7069316AB46A121AEA
:1016F000B069521A716A121AF069521A121A96F8DF
:101700003800141B41070DD4002C0BDD2746B068B0
:101710002021A8470028B06057D0F06A401C7F1EE7
:10172000F062F4D1736942463146284600F0B0FCBD
:1017300000284AD1376A002F0ADDB0683021A84757
:101740000028B06041D0F06A401C7F1EF062F4D1E6
:10175000B369F2683146284600F09AFCA8BB776A64
:10176000002F09DDB0683021A847B06068B3F06A87
:10177000401C7F1EF062F5D1F068B169F369421830
:101780003146284600F084FCF8B9B76A002F09DD1D
:10179000B0683021A847B060B8B1F06A401C7F1E25
:1017A000F062F5D196F8380041070BD5002C09DD21
:1017B000B0682021A847B06038B1F06A401C641EB0
:1017C000F062F5D10020BDE8F0814FF0FF30BDE8B8
:1017D000F0812DE9F8470D46A3B02F6B002F064688
:1017E000904648BF6FF000470FF63C1400F090FDA4
:1017F000D4E90023696B4018CDE90123812828BF73
:101800004FF0FF3042D20024002F33DDD8F8001013
:1018100001AA684600F0E6FC8146B9F1000F38D411
:10182000D8F8000010B9B9F1010932D44F4521DBD5
:101830006869484481280AD30021696303AA2946BC
:101840003046FFF74BFF040014D40020686103AB5F
:10185000D5F814A04A46694603EB0A0000F05EFD85
:10186000CA44C5F814A058F8040B002818BFA7EB09
:101870000907C9D14CB903AA29463046FFF72EFF04
:10188000044614B9002068616863204624B0BDE8AE
:10189000F0874FF0FF34F8E72DE9FC4707468C4608
:1018A0003E69BCF16F0F08BF082405D04CF0200042
:1018B000782814BF0A2410243C25D7E90023BCF162
:1018C000640F18BFBCF1690F9046994606D10021FC
:1018D0008B4203DAD8F1000869EB49094FF0000A9E
:1018E000D14508BFD0451FD1386BE8B9082C4BD182
:1018F00097F83800010747D530203B2586F83B0094
:1019000042E000280ED597F8380000F014001028A7
:1019100008D17B6B7969386A5B1A1B1A9A1A002AFC
:10192000C8BF3A62BDE8F3878DF800C0404649461B
:101930002246E31700F046FD3032D0B26D1E3A2841
:10194000019504DB9DF80000A0F151018A18725541
:10195000404649462246E31700F034FD894680465A
:10196000D14508BFD04503D0F86871198842DDD34E
:10197000082C09D197F83800010705D5705D30288B
:1019800002D06D1E30207055C5F13C02BA6171194C
:10199000F960386B8242B4DA821A3A624FF6EF701D
:1019A000398F01403987BDE8F3872DE9D0430646DA
:1019B0000F4614464FF00008DFF8389412E0E007B5
:1019C00007D542464B463046394600F013FE0646E0
:1019D0000F464046494642464B4600F00BFE641017
:1019E00080468946002CEAD130463946BDE8D0838E
:1019F0002DE9F34F054641F020048DB0D5E900896B
:101A0000612C02AE09D0286B002848BF062003D401
:101A100008BF672C01D101202863D5E900235800B5
:101A20004015401C0ED119030CD00320A8619DF86D
:101A3000381061391A2902D20FF2F46111E00FF265
:101A4000F4610EE059004915491C0FD118030DD15E
:101A50000320A8619DF8381061391A2914D30FF2B8
:101A6000DC61E868032200F059FCD3E1194621F05B
:101A70000043B3F5801F10460DD20027BB4208BFBC
:101A8000BA42019703D111E00FF2AC61E9E701AA74
:101A900000F082FE0AE0DFF8607307EB1352DFF814
:101AA0005C3301921940DFF858331943C5E900014E
:101AB000612C0ED1E86830210170821CEA609DF82B
:101AC000381061290CBF7821582141706869801C49
:101AD0006861D5E900AB2BF0004300202AF000023A
:101AE000834204BF8242002300F05B81612C40F0FE
:101AF000AA80286B002847BF21210091401C00903C
:101B0000009F7F1C404649460022002300F07CFED7
:101B1000D94601998DF8082038BF89F00049091F7E
:101B2000002FD04601910DF1090040F34981B349DE
:101B3000DFF8D0B20C910646404649460022002309
:101B400000F07AFE80F03B814800400D00F11C025D
:101B500011D0002A0FDD40F2FF70824205DB09F050
:101B6000004040EA0B01002013E00C98014041EADC
:101B7000025140460DE029F00043002028F0000209
:101B8000834208BF82420FBF40461C22404600F0FD
:101B90006BFE8046894600F005FFFF1F002F0446BC
:101BA00009DD00F01DFF02460B464046494600F0A5
:101BB00029FF80468946F01D072104E004F00F024A
:101BC00000F8012D2411002C01DD491EF6D5491E17
:101BD0005CBF002200F8012DF9D5ECE00020194689
:101BE00002AA0A4400E05B1E12F80149491E844221
:101BF000F9D00F2804D10DF10900425C521C425467
:101C0000002904D50198001D02AE5B1C0190591EED
:101C100012D49DF838007218A0F13A07147804F134
:101C200030085FFA88F43A2CA8BFB844491E02F87D
:101C30000189F3D58DF83800286B002840F1B08079
:101C4000591E2963ACE0404649460022002300F0BB
:101C5000DBFD019938BF89F0004947F297504143B5
:101C6000694A91FBF2F20192D2F1070204DD40468B
:101C70004946FFF79AFE0AE0524200206349FFF707
:101C800094FE02460B464046494600F02DFF804632
:101C9000662C286BDFF878B106BF019F0A3706274C
:101CA0003F18142FC8BF142730208DF8080089462C
:101CB0000DF1090000E03046002F34DD06464046B5
:101CC000494601F035F801460A4606F108030420AA
:101CD0000A26B2FBF6F606EB860EA2EB4E02303277
:101CE00003F8012C0A22B6FBF2F202EB820EA6EBFD
:101CF0004E063036401E03F8026DE9D1083F002F32
:101D000003F10806D7DD084601F026F802460B4627
:101D10004046494600F076FE00225B4600F06AFC31
:101D200080468946CBE70DF10901401A0DF10906FD
:101D300004E00199491E401E0191761C317830293A
:101D4000F7D0662C02D10199491C03E0652C0CBF29
:101D5000012100212B6BCB189842B8BF431E002BEA
:101D60001ED4834204DAF05C3528A8BF392000DA9B
:101D700030201946721E02EB010800E05B1E18F8C5
:101D80000199491E8145F9D0392802D1705C401C67
:101D90007054002904D50198401C16465B1C019024
:101DA000019800B200901BB29DF8381032462846C8
:101DB00000F034F82EE0C61D002F3FF7BDAE3046D0
:101DC0000DF10901401A009903468842C8BF0B462D
:101DD000002B0DF109063FF52FAF8342BFF6FEAE93
:101DE0000DF10900C15C07297FF7F8AE0F20F6E678
:101DF000CBCCCC0C0000244002FCFFFFFFFF0F8087
:101E00000000E03F0000F07FA08601000000F03FEE
:101E100084D797410FB0BDE8F08F00002DE9F84757
:101E200083B006468A461746984600F0DDF9B8F1B9
:101E3000000F406A356B90F8009002DC4FF001080B
:101E4000BFA74AF02000BDF93040662808BF641CD7
:101E500015D0672840F0848014F1040FC0F286800A
:101E6000AC4280F2838096F83800641C010702D4EB
:101E7000A845B8BF454620B22D1A48BF00250FFA25
:101E800084FAF068B169BAF1000F25DC4A1C3023EE
:101E90004354002D03DC96F83800010703D5F068A1
:101EA00000F80290521C15EB0A0FB8BF6C4220B22A
:101EB000441941424445B8BFA046B26171620FFA6D
:101EC00088F5F561F068B3692A463946184400F090
:101ED00025FA641BB462C4E022B29045084417DAC4
:101EE0004246394600F01AFAB0694044B061AAEBA4
:101EF0000801002D716203DC96F838100A0705D539
:101F0000F16801F80090F069401CF061B562A8E04A
:101F1000394600F003FAB069002D5044A8EB0408DC
:101F200003DC96F838100A0703D5F16801F8009031
:101F3000401CB0610FFA88F08542F368B069B8BF01
:101F4000A8460FFA88F207EB0A01184400F0E6F9F8
:101F5000B1690FFA88F00144B161281A706280E01B
:101F6000BAF1610F14D14FF0700A16E0A84504DAF7
:101F700096F838100A0758BF45466D1E48BF002521
:101F8000BAF1670F14BF4FF0450A4FF0650A04E03D
:101F9000BAF1410F08BF4FF0500AB169F368481C0D
:101FA000B061002D17F8012B5A5403DC96F8381055
:101FB0000A071BD5F168431CB36101F80090002D9E
:101FC00014DDA8F101080FFA88F039468542F76858
:101FD000B8BFA8460FFA88F2F81800F09FF9B06968
:101FE0000FFA88F108446D1AB0617562F068B16942
:101FF0000844002C80F800A003D42B224270811CDE
:1020000003E02D2141706442811C00206A460AE0F1
:1020100023460A2493FBF4F404EB8405A3EB450365
:1020200002F8013B401C24B2002CF1DC012806DC44
:102030004AF02002652A04BF302201F8012B48B97A
:10204000302001F8010B07E0401E1DF8003030334E
:1020500001F8013B0028F7DCF268B0691044091A66
:10206000F16196F8380000F0140010280DD1726963
:10207000B169706A8A18F1698218B06A8A18821880
:10208000706B8242BCBF821A326204B0BDE8F08736
:10209000F8B505460E4617461C46002074B117F8E1
:1020A000011BB068A847B06030B1F06A401CF06214
:1020B0000020641EF3D1F2BD4FF0FF30F2BD0000EE
:1020C0007072696E74665F733A20256E206469735E
:1020D000616C6C6F776564007072696E74663A202B
:1020E00062616420256E20617267756D656E740093
:1020F0007072696E74665F733A2062616420257342
:1021000020617267756D656E740000007072696E93
:1021100074665F733A2062616420256C732061727B
:1021200067756D656E74000000000000000000001F
:102130006E616E004E414E00696E6600494E46006B
:10214000300030B4002513E050F8042BD30744BF0F
:10215000A9F101039A18091F042942F8045BFAD275
:1021600013468C0744BF15809B1CC90748BF1D70D0
:1021700050F8041B0029E7D130BC70471B4870475A
:1021800070B45368D418042B09DA41B1057804F807
:10219000015B10F8016B16B15B1C491EF3E753603D
:1021A00070BC704738B514461D4661B1FFF7E8FFB3
:1021B00061686A6B204690476FF00102811A02D075
:1021C000491E01D001E003E005E00021616032BD5D
:1021D0006FF0010032BD4FF0FF3032BDDA6B1047B7
:1021E000024BDFE7014BF9E701487047B0000020E0
:1021F000780000200278C9B28A421AB11CBF10F8D8
:10220000012FF9E718BF00207047B1F5807F02D396
:102210004FF0FF3070470170012070470078401E7A
:102220008041C043C00F704780B500B906A0054982
:102230000B681BB122220021984701E0FEF764FFE2
:10224000222002BDAC080020636F6E737472616956
:102250006E742068616E646C65723A2062616420FD
:102260006D6573736167650000F10103810704D038
:1022700010F8011B820781B1FAD10268A2F1013185
:10228000914311F0803104BF50F8042FF6E709BAEA
:10229000B1FA81F100EBD100401CC01A704782688E
:1022A000521C8260426832B10268531C0360117094
:1022B0004168491E41607047C9B2830706D0521E6B
:1022C00022D310F8013B9942F7D11FE0083A13D30B
:1022D00002F1040241EA012141EA014150F8043BC4
:1022E000121F21BF4B40A3F1013C2CEA030C1CF050
:1022F000803FF3D0C9B2001F083210F8013B521ED4
:1023000028BF91EA030FF8D818BF0120401E70477C
:1023100080B5FFF733FF006C02BD000062B38B078E
:1023200008D0521E11F8013B00F8013B00F0248058
:102330008B07F6D1830740F0208000BF103A07D307
:1023400030B4B1E83810103AA0E83810F9D230BCF7
:10235000530724BFB1E80810A0E8081044BF51F8A3
:10236000043B40F8043BD20724BF31F8022B20F88D
:10237000022B44BF0B7803707047121F17D35B000A
:1023800009D151F8043B20F8023B1B0C121F20F826
:10239000023BF6D20BE051F8043B00F8013B1B0A6C
:1023A00020F8023B1B0C121F00F8013BF3D238BF90
:1023B000121D521E24BF11F8013B00F8013BF8D852
:1023C00070470000BBBBE1B1B2F5803F80F07E807A
:1023D000022A1ED98C46B1FBF2F102FB11C31B0489
:1023E00043EA1043B3FBF2FC02FB1C3380B240EA29
:1023F0000343B3FBF2F002FB103240EA0C4000232F
:102400007047022A05D98446B0FBF2F002FB10C2E5
:1024100070474AB105D100F0010249085FEA300077
:10242000704700220023704700F0A4BC0B0002009C
:10243000002100207047904271EB030CF6D3B3F5F6
:10244000803F2FD2F0B5B3FA83F7B1FA81F4A7F148
:102450000F0E3D1B5340CEF1200602FA0EF2F3415F
:102460005340B5F10F0746D80F3C2C444140C4F10E
:102470002006A040F1414140B1FBF3F603FB1611E9
:10248000A2FB0645001BA94102D2761E80185941C5
:1024900080EA010221FA0EF362FA0EF200215A409C
:1024A0003046F0BD30B4B1FBF3FC03FB1C11A2FBC2
:1024B0000C45001BA94103D2ACF1010C8018594115
:1024C00030BC02460B46604600217047B2F1807F67
:1024D00065D3F0B5B2FA82F7B1FA81F4C7F10F060D
:1024E0003D1B22FA06F307F1110EF24120355A4046
:1024F000B5F10F07B8D94140C4F12006A040F14121
:102500004140B1FBF3FC03FB1C11A2FB0C45001B7B
:10251000A94103D2BCF1010C801859410F2F12D3ED
:102520000F3FC90341EA5041B1FBF3F603FB16111B
:10253000A2FB0645D4EBC030A94102D2761E80181A
:10254000594146EACC3C07B34140C7F12006B840A8
:10255000F1414140B1FBF3F603FB1611A2FB064526
:10256000001BA94102D2761E8018594180EA01025F
:1025700021FA0EF3C7F1200462FA0EF20CFA07F00A
:102580005A402CFA04F13043F0BD80EA010221FAEE
:102590000EF3002162FA0EF260465A40F0BD8C46FE
:1025A000B1FBF2F102FB11C31B0243EA1063B3FB60
:1025B000F2FC02FB1C331B024CEA002043EA1063CE
:1025C000B3FBF2FC02FB1C331B024CEA002043EA83
:1025D0001063B3FBF2FC02FB1C331B024CEA00202D
:1025E00043EA1063B3FBF2FC02FB1C324CEA00200E
:1025F00000237047B0B581EA030C0CF0004C40F2A8
:10260000FF7515EA11541DBF15EA1357AC42AF42CE
:1026100039E0E41923EA455343F48013C90241F039
:10262000004141EA505EC7021100A7FB02020028E8
:102630004FF00000EEFB01204FF00001E3FB07210B
:1026400018BF42F00102401800214941E3FB0E018E
:10265000A4F580640F0302D252004041494154F175
:1026600001046CDD470872F1004250F1000051EBAB
:102670000451A1F580115CBF41EA0C01B0BD4CEAE8
:1026800005510020B0BD05EA1357AC4214BFAF425C
:1026900041E050EA410E1CBF52EA430E02E061469F
:1026A0000020B0BD24423C441BD15FEA070EF6D0A7
:1026B000090302BF01460020AEF1140EB1FA81F702
:1026C000AEEB070401FA07FE0C37C7F1200100FA50
:1026D00007F7C8404EEA000E23EA455343F480133F
:1026E000A2E733F00043B3FA83F704BFB2FA82FEE5
:1026F00077440B3FE41BB7F1200E2FBF02FA0EF315
:10270000BB40C7F1200E22FA0EFE38BF43EA0E038B
:10271000BA40641C82E750EA410E14BF52EA430EED
:102720006FF000014FF4001717EB430F8ABF1946F3
:1027300017EB410FB5E74CEA05510020B0BDD4F1CD
:102740000104B4F120070FDAC4F12007520828BFB2
:1027500042F0010210FA07F501FA07F7E1BF2A4338
:10276000E0403843E1400FE0352C98DCC7F120040D
:1027700052EA400220FA07F218BF42F0010231FA91
:1027800007F0A1400A43002172F1004250F100001D
:1027900051EB0C01B0BD000010B5144600F002F87A
:1027A000226010BDC1F30A5343B14A0012F5001F65
:1027B00028D2A3F2FE32A1EB0251704750EA410C3D
:1027C00020D001F0004C31EA0C01B1FA81F204BFD3
:1027D000B0FA80F3D2180B3AB2F120032CBF00FA02
:1027E00003F1914041EA0C013EBFC2F1200C20FAF6
:1027F0000CF319439040524240F2FD33D21A01EBE0
:1028000003517047002270474FF4001C1CEB410F2E
:1028100094BF1CEB430F09E041EA030C50EA4C0C57
:1028200052EA0C0C03D2994208BF9042704714BF81
:102830008B428242704700004FF4001C1CEB410F9A
:1028400094BF1CEB430F09E041EA030C50EA4C0C27
:1028500052EA0C0C03D28B4208BF8242704714BF6D
:102860009942904270470000124254D440F2FF7CDB
:102870001CEA11530FD0634531D09B1863453CBF10
:1028800001EB0251704701F0004141EA0C51002078
:10289000AFF30080704750EA410320D001F0004CB4
:1028A00091EA0C011CD0B1FA81F30B3B9A420DD98D
:1028B000D21A994051EA0C01C3F1200C20FA0CFC09
:1028C00061449840531C40F2FF7CD7E7914041EAB5
:1028D0000C01C2F1200C20FA0CF319439040704710
:1028E000B0FA80F31533202BE0D3202AEED3203A20
:1028F000203B9A4209D9D21A00FA03F141EA0C01AD
:102900000020531C40F2FF7CB8E700FA02F141EAD4
:102910000C0100207047524240F2FF7C1CEA115328
:102920000DD06345DBD0B2EB030C3CBFA1EB0251F1
:1029300070470CF1010221EA035141F4801150EA81
:10294000410CCCD001F0004C352A27DC30B481EAB0
:102950000C01B2F1200309DAC2F12003044601FAA6
:1029600003F5D0402843D1409C400CE0C3F1200245
:10297000450020FA03F418BF44F0010421FA03F0E3
:1029800091400C43002174F1004550F1000051EBDF
:102990000C01244230BC7FF47BAF704761460020BD
:1029A00076E70000C1F30A5340F2FE329B1A14DDB1
:1029B000D3F120034FEAE17208DDC90241EA505128
:1029C00041F00040D84080185040704703F2E13099
:1029D00010B1D24382F000407047002070470000E1
:1029E000C11768B14840401AB0FA80F29040D21C3A
:1029F000C907C2F5846241EA025202EBD0214005C8
:102A00007047000070B44FF0004591EA030F40F1A9
:102A1000BB816B40841A71EB030603D2001BB141EA
:102A2000121973414FF4001C1CEB410F34BF7CEBB7
:102A3000430442E00C0DA4EB1356352E4FDC45EA5F
:102A4000C323DB0A45EAC121C912B6F120050DDD19
:102A500063FA05F6EB4086EA0305124218BF45F01B
:102A60000105C01851F100010CD213E062FA06F51D
:102A7000F2405540F3415A40B340F3405A40801869
:102A8000594107D349085FEA30005FEA350528BF9E
:102A900045F0010501F58011420875F1004250F141
:102AA000000041EB04514E0016F5001F70BC38BF0A
:102AB00070470020090D090570471CEB410F10D22B
:102AC00052EA43060BD0BCEB410F05D80C0DAB43CB
:102AD000661E342EB6DD02E0AB438018594170BC4F
:102AE000704770BC70470000F0B540F2FF7581EA96
:102AF000030C0CF0004C15EA11541DBF15EA1357D6
:102B0000AC42AF42E5E0BC41C1F31301C3F3130390
:102B1000801A994143F4801304D2641E4000494155
:102B200080185941C90241EA5051B1FBF3F603FB49
:102B30001611A2FB0675D7EBC020A94102D2761E62
:102B400080185941C90241EA5051B1FBF3FE03FB21
:102B50001E11A2FB0E75D7EBC020A94103D2AEF126
:102B6000010E80185941890241EA9051760546EAE2
:102B70008E2EB1FBF3F603FB1611A2FB0675D7EB05
:102B80008020A94102D2761E80185941C90241EA2B
:102B900050514EEA060EB1FBF3F603FB1611A2FBF1
:102BA0000675D7EBC020A94102D2761E8018594184
:102BB000C90241EA5051B1FBF3F703FB1711A2FB25
:102BC0000735D3EBC020A94167F100070CBF0042D5
:102BD00047F0010766F3D5274FEA1E31B80814F510
:102BE000806412DDBD0775F1004250EB0E5051EBD1
:102BF000045111F5801F5CBF41EA0C01F0BD4CF09F
:102C00007F6141F0E0410020F0BDBD076D0840EA62
:102C10000E5041F48011D4F10104B4F120060ADA17
:102C2000C4F120060200E04001FA06F3E140184337
:102C3000B24015430EE0342C13DCC6F1200445EA03
:102C400040056D0820FA06F2154321FA06F0A1406E
:102C50000D43002175F1004250F1000051EB0C01D1
:102C6000F0BD00205FEA0C01F0BDCFB992185B41C6
:102C7000B3FA83F704BFB2FA82F6BF190B3FB7F17C
:102C800020062FBF02FA06F3BB40C7F1200622FA46
:102C900006F638BF3343BA401CB1E419641E33E76B
:102CA0007F4231F00041B1FA81F404BFB0FA80F6FE
:102CB000A4190B3CB4F120062FBF00FA06F1A14085
:102CC000C4F1200620FA06F638BF3143A0403C1B71
:102CD0001AE7AC421ABF05EA1357AF4212E050EAB6
:102CE00041061CBF52EA4306BFE750EA410730469F
:102CF00061461CBF41EA0551F0BD52EA430C08BFD2
:102D0000C143F0BD00204FF4001616EB410F98BFF1
:102D100016EB430F08BF16EB410F24BFC14305E07C
:102D200016EB430F0CBF61464CEA0551F0BD0000A5
:102D3000400D491840EA81200CD2490DA1F580616F
:102D4000491C40F0004005DBD1F11F0154BFC840D1
:102D5000C017704700207047014648B1B0FA80F1B3
:102D60008840C91CC1F58461090501EBD0214005EB
:102D7000704700007047000070B44FF0004591EAC2
:102D8000030F7FF547AE6B40841A71EB030604D244
:102D90006E40001BB141121973414FF4001C1CEB33
:102DA000410F34BF7CEB430683E00C0DA4EB1356BC
:102DB000362E00F37C80012E45EAC32341DC43EA32
:102DC000525312BFD20292025B08240545EAC12188
:102DD00041EA5051D2EBC020994125D407D1B0FA35
:102DE00080F610FA06F162D00020203608E0B1FA31
:102DF00081F6B140C6F1200220FA02F21143B04040
:102E00004FEAF474B4EB465434F001064FEA74040C
:102E10000AD8D6F50016760D04F00044F04061FAA9
:102E200006F25040F1404840C00A40EA415021F0CB
:102E3000004128BF5FEA500550F1000044EBD1216A
:102E400035E0DB0A45EAC121C90AB6F120050EDDED
:102E500042EA0242120CC5F1200603FA06F6EB40E4
:102E600042EA06056D42984161F100010DE062FA07
:102E700006F5F240554063FA06FC82EA0C02F34084
:102E80005A406D42904161EB030111F4801F05D15E
:102E9000641E620502D06D004041494121F4801159
:102EA000430875F1004350F1000041EB045170BC40
:102EB00070471CEB410F15D223F0004352EA430642
:102EC0000BD04FEA4C0CBCEB410F04D80C0D661E26
:102ED000342EB7DDEBE7801A994150EA410608BF6E
:102EE0000021E4E708BF1CEB430F28BF6FF000018F
:102EF000DDE7000038B5040001D1012032BD00201B
:102F0000A06204F15005687820B90021297020469C
:102F100000F03AFB0220687000F05AFA6268A1687B
:102F2000E06823680A432169024360690A43A16992
:102F3000024301F40071E0690A43216A0243A06A76
:102F40000A4302431A60A169606A2268090C01F011
:102F50000401014351602068C16921F40061C1612D
:102F6000002068600121697032BD2DE9F84300F04E
:102F70000EFA984608BF022000F0888001203870C1
:102F800000F0AAFB7978012918BF02267CD1002C19
:102F900018BFB9F1000F76D0032179707E602C63E1
:102FA000A5F83490A5F83690AE63AE87EE876E64D0
:102FB0002E64AB68B3F5004F04D129680B6843F465
:102FC00080430B6029680B685C0603D40B6843F0F0
:102FD00040030B604446E968B1F5006F696821D190
:102FE000002918BFB9F1010F00F0E6F9804604E0AE
:102FF000296B0A88C26000F0BCF9E88E002833D043
:10300000286881688A07F3D400F066FBA0EB08000B
:10301000A04204D314F1010FEFD0032634E0002CBA
:10302000EBD1FAE7002918BFB9F1010F00F0B8F9A8
:10303000804606E0296B0A780273286B411C00F079
:103040009AF9E88E80B1286881688A07F2D400F086
:1030500043FBA0EB0800A04203D314F1010FF0D012
:10306000DBE7002CEDD1D8E742462146284600F0A8
:1030700028FA08B120207860A86810B900F080F91B
:10308000009A786800B1012600F09AF8BDE8F28352
:103090002DE9F843002604460D466068B0F5827FAE
:1030A00004BFA06800289146984604F1500709D152
:1030B00004267E70CDF800804B462A46204600F05C
:1030C00085F87BE03878012808BF022076D00120FF
:1030D000387000F001FB7978012918BF02266BD106
:1030E000002D18BFB9F1000F65D0042179707E6002
:1030F000A563A4F83C90A4F83E902663A686E686D5
:1031000026646664A268B2F5004F04D121680A689B
:1031100022F480420A6021680A68530603D40A68D0
:1031200042F040020A600546E168002926D108E025
:10313000007BA16B0870A06B421CA263E08F411E54
:10314000E187E08F68B320688168CA07F0D400F097
:10315000C3FA401B404504D318F1010FF1D00326F8
:103160002AE0B8F1000FECD1F9E7C068A16B088044
:10317000A06B821CA263E08F411EE187E08F80B1CB
:1031800020688168CA07F0D400F0A6FA401B4045C9
:1031900003D318F1010FF1D0E1E7B8F1000FEDD141
:1031A000DDE72A464146204600F063F908B12020B9
:1031B0007860786800B1012600F002F8BDE8F2837B
:1031C0000120787000213970304670472DE9FC47A6
:1031D00000F0DDF84FF0010808BF022000F0BC80CD
:1031E0009A4687F8008000F077FA7B78012B09D0A7
:1031F0006968B1F5827F02BFA9680029042B01D05C
:103200000226A4E0002C1CBFB9F1000FBAF1000F98
:1032100001D101269BE07B78042B1CBF052179702E
:103220007E60C5F83890A5F83EA0A5F83CA02C63B8
:10323000A5F836A0A5F834A02E646E6429680C6841
:10324000630603D40C6844F040040C60E9680A9CEF
:10325000B1F5006F696838D1002918BFBAF1010FC4
:1032600000F0AAF88146E88E002804BFE88F002805
:1032700074D02968886882070BD5E88E002818BFAB
:10328000B8F1000F05D0286B0288CA60B04600F084
:1032900070F829688868C2070CD5E88F50B1C868F3
:1032A000A96B08804FF00108A86B821CAA63E88F05
:1032B000411EE98700F010FAA0EB0900A042D2D32A
:1032C00014F1010FCFD0032641E0002918BFBAF155
:1032D000010F00F065F88146E88E002804BFE88FF2
:1032E00000283BD02968886882070DD5E88E002821
:1032F00018BFB8F1000F07D0286B02780A73B046E8
:10330000286B411C00F037F829688868C2070CD583
:10331000E88F50B1C868A96B08704FF00108A86B1E
:10332000421CAA63E88F411EE98700F0D5F9A0EBA3
:103330000900A04203D314F1010FCDD0C3E7002C44
:10334000CAD1C0E7A86810B900F01AF800980121A6
:103350007970002038703046BDE8F68721464A462D
:10336000284600F0AEF80028ECD020210126796034
:10337000EDE7286B811C2963E88E411EE9867047C2
:1033800000962968CA6800928968009170470546CE
:1033900005F150070026387801280C469146704701
:1033A00009D1296B2B680A781A73296B4A1C2A6386
:1033B000E98E4A1EEA86704709D1296B2B680A8874
:1033C000DA60296B8A1C2A63E98E4A1EEA867047F6
:1033D0002068016821F04001016070472DE9F0414B
:1033E000069F05460E4690461C4628688168314077
:1033F000B1420CBF01200020404531D014F1010F33
:10340000F3D000F069F9C01BA04201D2002CECD12E
:103410002868416821F0E00141606868B0F5827F6A
:1034200008D1A868B0F5004F18BFB0F5806F01D182
:1034300000F019F8A86AB0F5005F09D128680168A2
:1034400021F4005101602868026842F400520260D1
:1034500005F150000121417000220270032000E0BC
:103460000020BDE8F0812868016821F0400101607A
:1034700070471CB504460B466068B0F5827F08D1E2
:10348000A068B0F5004F18BFB0F5806F05D1FFF709
:103490009FFF6068B0F5827F07D1A0680092B0F509
:1034A000806F03D00022802102E0009200220121DF
:1034B0002046FFF793FF10B100F02BF816BD002057
:1034C00016BD7CB504461648164E0B4601681825F5
:1034D000B1FBF5F5B5FBF6F64FF47A70464300966E
:1034E0006168B1F5827F09D10092802100222046D7
:1034F000FFF774FF58B100F00CF876BD009830B1BA
:103500000098401E0090216888680106F6D40020CB
:1035100076BD606D40F020006065032070470000BC
:103520007400002040420F0080B56148614900F0FE
:103530000BF800B11CE001BD80B55F485F4900F0A9
:1035400003F800B114E001BD01604FF482724260E3
:1035500000234FF400720A218360C360036143615A
:103560008261C361036243628362C162FFF7C2BCCE
:10357000BDE8014000F08AB980B551485149FFF7D4
:10358000E3FF00B1F4E701BD10B586B0044668461C
:10359000142100F0A1F9226846484B49824220D10B
:1035A00000220592486940F480504861486900F45F
:1035B000805005900598059202220B6843F00103A4
:1035C0000B60086800F001000590E02105983F4875
:1035D000009101920021029103220521049103929E
:1035E00058E0364B3A489A4235D1002205920B6991
:1035F00043F480430B6100230A6902F48042059280
:10360000059A05930C6844F004040C600A6802F003
:1036100004020592059A05930C220C6844F00204FA
:103620000C600223096801F0020100F038F805225D
:1036300003930492694600F053F90221019100229C
:103640004FF400500292032100900391052204924E
:10365000694620481FE01B4B9A421ED1002205926A
:103660000B6943F400430B6100230A6902F4004232
:103670000592059A05934FF4E0520C6844F0040457
:103680000C600223096801F0040100F008F806222A
:1036900003930492694600F023F906B010BD05912A
:1036A00005990092019300220292032370470000C3
:1036B0009405002000300140EC0500200038004057
:1036C00044060020003C0040303802400000024028
:1036D000000802400004024001484068704700BFF3
:1036E0006800002064480021C16281624162704725
:1036F0007FB500F0E1F900F074F800F0F7F900F0A0
:103700005DFA00F07DFA00F0E3FAFFF70DFFFFF736
:1037100013FFFFF731FF00F04DFB00F057FB00F007
:103720009FFB00F091FC00F08CFD00F0EDFD00BF70
:103730000FF25C100FF2801458A54F4E00F0A7FE58
:103740004E494F4800F020FF00F050FFFFF7CAFF3E
:1037500000F02BFF706B316BB1FBF0F200FB12102D
:10376000F0B900F0FBFFF06A01280CD1306A01F0DB
:1037700031F9CDE90001F06901F02CF902460B4660
:10378000284600F084FE706A012809D1D6ED041A9B
:1037900096ED011A96ED000ADFED360A00F097FE6D
:1037A000306B4FF47A71B0FBF1F14FF47A7202FB97
:1037B0001100002804BFB06A0128C9D1306901F0A6
:1037C00009F9CDE90201706801F004F9CDE90001C1
:1037D000306801F0FFF802460B46204600F057FE25
:1037E000B6E780B592B006A8302100F075F801A8C0
:1037F000142100F071F8002000904FF4803321482C
:10380000016841F0805101600021006800F08050A3
:10381000009000981C480091026842F480420260C7
:103820000122006800F48040009006A800990692EA
:1038300002214FF480020C910D920421A8220E91D6
:103840000F920221042207931091119201F0E6F8E1
:1038500002210291002203920F204FF4A051019007
:1038600004914FF480520592052101A801F052FA0B
:1038700013B000BD00000000300000203808002018
:10388000F8070020403802400070004070470000F8
:1038900068656C6C6F3F0D0A00000000783D25667E
:1038A00020202020202020202020793D2566202057
:1038B000202020200D0A0000783D256620202020B1
:1038C00020793D25662020202020616E676C653DB3
:1038D00025660D0A00000000002201F0EFBA00008A
:1038E0002DE9F84703460C464FF0000867480F21C2
:1038F0000122256802FA08FC0CEA0509E14540F0BE
:10390000B9806568022D18BF122D4FEA880A10D1C0
:103910004FEAD80503EB850E0AF01C06DEF82050AE
:1039200001FA06F7BD43276907FA06F63543CEF8D4
:1039300020504FEA480E03251E68277905FA0EF538
:10394000ED4307F003072E4007FA0EF73E431E60D3
:103950006668012E18BF022E03D0112E18BF122E3A
:1039600010D19E68E7682E4007FA0EF73E439E602E
:103970005E6826EA0C076668C6F3001606FA08F6C3
:103980003E435E60DE683540A66806FA0EF63543B3
:10399000DD606568ED006DD5002500954FEA980C57
:1039A00005683B4F45F4804505600AF00C0A056840
:1039B00005F480450095009D57F82C6001FA0AF542
:1039C00026EA0505334EB34208BF002622D0324E08
:1039D000B34208BF01261DD0304EB34208BF0226B5
:1039E00018D02F4EB34208BF032613D02D4EB3423A
:1039F00008BF04260ED02C4EB34208BF052609D0BE
:103A00002A4EB34208BF062604D0294EB3420CBF4B
:103A10000726082606FA0AF6354347F82C506FEABF
:103A2000090C244F3D680CEA050E6568EE0348BF9B
:103A300049EA0E0EC7F800E07D680CEA050E6568DD
:103A4000AE0348BF49EA0E0EC7F804E0BD680CEAB1
:103A5000050E6568EE0248BF49EA0E0EC7F808E099
:103A6000FD680CEA050E6568AD0248BF49EA0E0E16
:103A7000C7F80CE008F10108B8F10F0F7FF639AF75
:103A8000BDE8F18702B909048161704744380240FA
:103A900008380140000002400004024000080240D3
:103AA000000C0240001002400014024000180240C6
:103AB000001C0240003C014080B50B48016841F405
:103AC00000710160026842F480620260016841F4A2
:103AD00080710160032001F018FA002001F06AFAF9
:103AE00001F088FA002002BD003C024038B586B0E3
:103AF00001A81421FFF7F0FE00242C482C4D00945F
:103B000001682C4C41F004010160026802F00402DB
:103B10000092002200990092036843F08003036042
:103B2000016801F08001009100990092036843F060
:103B300001030360016801F0010100910099009206
:103B40004FF46041036843F002030360006800F033
:103B50000200009000982846FFF794FF0022012100
:103B60002046FFF78FFF4FF46041019101220021B1
:103B700003910491029201A92846FFF7B1FE0121A9
:103B800001910291204600210391049101A9FFF7C0
:103B9000A7FE4FF4007000210190029101220392D0
:103BA00001A90548FFF79CFE07B030BD3038024040
:103BB00000080240000402400000024080B50020DE
:103BC000009000220D48016841F4001101600021BD
:103BD000006800F4001000900098102001F0A2F995
:103BE000102001F0BCF900220021112001F09AF907
:103BF000BDE80240112001F0B2B900BF30380240E8
:103C000080B52F482F491022002301604260836055
:103C1000C360036143618361838301F007FA18B1D4
:103C2000BDE80140FFF732BE01BD38B586B004469D
:103C300001A81421FFF750FE2468224DAC423DD16B
:103C40000020009000222048016941F000710161CC
:103C5000016901F000710091009900924FF4C05188
:103C6000036843F0010303600222006800F00100D2
:103C700000900098154801910292002103910322BF
:103C800009210591049201A9FFF72AFE00220021D3
:103C9000142001F047F9142001F061F900220021FD
:103CA000152001F03FF9152001F059F900220021FB
:103CB000162001F037F9162001F051F907B030BD98
:103CC0003808002000640040303802400000024004
:103CD000324A3348334980B5426000234FF4804272
:103CE00001608360C360026143618361C3610362F9
:103CF00001F0ACFC18B1BDE80140FFF7C7BD01BD44
:103D000038B586B0044601A81421FFF7E5FD246804
:103D1000244DAC423FD10020234C0090216841F05B
:103D2000040121600021206800F004000090009848
:103D300000914FF40071226842F0010222601222C9
:103D4000206800F00100009000981848019102924C
:103D500001210391032204210591049201A9FFF797
:103D6000BFFD12210291012203924FF480700321C2
:103D7000019004910422059201A90D48FFF7B0FDBE
:103D800000200090216941F400012161206900F4C4
:103D900000000090009807B030BD0000A086010030
:103DA0009C060020005C00403038024000080240C1
:103DB00000000240D8B58BB000F04EF89CA44FF044
:103DC0008041D4E90067914C53E00000D0B592B037
:103DD00000F042F898A40BA8D4E90067CDE9006789
:103DE0001C21FFF779FD8A4C8A4820600021616020
:103DF000A160E1602161A161204601F0CFFC08B122
:103E0000FFF744FD012000210290039104900591E9
:103E100006910791089009910A91204602A901F0A4
:103E2000D2FC08B1FFF732FD00F044F808B1FFF70B
:103E30002DFD602100220B910C920D920F920BA987
:103E40000C22204601F026FD08B1FFF71FFD204699
:103E500000F0B4F812B0D0BD02A82421FFF73CBD99
:103E6000D8B58BB0FFF7F8FF75A46B49D4E90067AC
:103E70006A4C0120CDE90067216000220290049085
:103E800008906260A260E2602261A26103920592E2
:103E90000692079209920A9202A9204601F093FC29
:103EA00008B1FFF7F3FC00F005F808B1FFF7EEFCEE
:103EB0000CB0D0BD0021009101912046694601F06F
:103EC00085BE10B586B000F074F821685448B1F191
:103ED000804F1CD100210091026942F00102026171
:103EE0000022016901F00101009100990092032173
:103EF000036843F0010303600222006800F0010040
:103F000000900098474800F021F8012118E0424A4B
:103F1000914219D100210091026942F0040202612C
:103F20000022016901F0040100F03DF843F00203B2
:103F30000360022200F05DF83B4800F007F8022120
:103F4000059101A9FFF7CCFC06B010BD01910292CA
:103F5000002103910491704738B586B000F029F82C
:103F600024682C4DAC421CD10020009000222C482B
:103F7000016941F002010161016901F0020100F0F3
:103F800012F843F0040303600222006800F004000A
:103F90000090009825480191029200F030F8FFF758
:103FA0009FFC07B030BD009100990092C0210368CA
:103FB0007047044601A81421FFF78EBC38B586B0BF
:103FC000FFF7F7FF2468134DAC4210D1002000909A
:103FD0001348016841F002010160022100F009F874
:103FE0000191029100F00BF80F48FFF779FC07B040
:103FF00030BD006800F0020000900098704700217A
:10400000039104910221059101A97047380700200E
:10401000780700200004004000080040B807002096
:104020003038024000000240000402400008024014
:104030000000000000000000000000000000000080
:10404000000000000000000080B5464846490160BD
:104050004FF4E13200230C2142608360C3600361AE
:1040600041618361C36101F0D1FD18B1BDE8014038
:10407000FFF70CBC01BD2DE9F04186B0044601A854
:104080001421FFF729FC2568374EB54266D1002080
:10409000009000223548364D0169364E41F400311A
:1040A00001614FF00067016901F4003100914FF4A4
:1040B0008068009900920C21036843F001030360BB
:1040C0000222006800F00100009000982A48019147
:1040D000029201210391032207210591049201A973
:1040E000FFF7FEFB0020A860686100214FF480709C
:1040F000E861E960A961296269622E606F60C5F8B4
:104100001080284602F07AF808B1FFF7BFFB06F1ED
:10411000180005F18406402165632866A966002021
:10412000E8666867A867E867C5F880003060AC6338
:104130006F66C5F8708005F1600002F05FF808B1A5
:10414000FFF7A4FB05F160002063746100220021E9
:10415000262000F0E7FE262000F001FF06B0BDE8B3
:10416000F0810000F8070020004400403038024091
:10417000E00300208860024000000240F8B50D46D0
:10418000044600210091002003E0225C0DF800208D
:10419000401CA842F9DB00F031F800F023F8694632
:1041A0003846FEF7E2FE012200F02AF800F027F878
:1041B00000F01DF811E00000F8B504460D4600F0CF
:1041C0001DF800F00FF821463846FEF7CEFE00F04D
:1041D0000EF810B14AA000F05AF9012200F010F8D0
:1041E0002846F2BD094F4FF47A73042270474FF40A
:1041F0007A73042221463846FEF74ABF044E002255
:104200004FF400513046FFF73DBC0000EC050020A4
:104210000008024010B5024600200023002122FAC7
:1042200003F404F0010461185B1CDCB2202CF6DB03
:10423000C9B201EBD1725208B1EB420108BF0120B3
:1042400010BD00211CB5009103228DF803208DF8CC
:1042500002108DF8011002228DF8002000F04DF8B8
:10426000322002F08BF900F017F8322002F086F9C4
:1042700000F012F8322002F081F900F00DF864200D
:1042800002F07CF90C2000F012F80124000A5228F8
:1042900018BF0024204616BD00200221ADF8020000
:1042A0008DF801008DF800106846042184E780B580
:1042B0000022C309400000928DF8010043F0800302
:1042C00000068DF80030000A00EB0360FFF7A2FF44
:1042D00000F011F804216846FFF750FF9DF8021026
:1042E0009DF80100090201EB00419DF80300081848
:1042F000C002000C02BD8DF80300042168465BE794
:104300006572726F720D0A0010B50B4C00F01AF84E
:104310000421204601F09DFA084C00F013F8042116
:10432000204601F096FA064C00F00CF82046BDE855
:104330001040042101F08DBA3807002078070020D2
:10434000B80700200021204601F083BA10B50146CD
:10435000704C20464022FDF7F1FF632204F1440136
:10436000204601F0CAFC00F007F82068C16841F05F
:104370001001C16010BD000010B5674C206830B955
:10438000002266490FF2A11002F025F92060BDE875
:1043900010400FF28D0200BF0FF2B8116BA04DE07C
:1043A0001CB55F4C04F168026946204600F00CF829
:1043B000009804F1680100F01DF862212046FFF723
:1043C0008BFA0020606613BDF8B50C465DA6154655
:1043D000314602F009FA002748B10D2F07DA45F8F7
:1043E00027003146002002F0FFF97F1CF4E7276028
:1043F0000020F2BD38B50D46474A296804461068CA
:1044000002F056F9020005D012682946204690476E
:10441000002032BD53A000F03AF8012032BD000068
:1044200080B500BF53A000F032F83B480FF20911ED
:104430000068BDE80840002202F06AB92DE9F8439F
:104440000446894616460820FCF700FD074620462C
:10445000FDF70AFF401CFCF7F9FC80464846FDF7D3
:1044600003FF401CFCF7F2FC05462146404602F0E3
:10447000E1F94946284602F0DDF93A4641463E60F8
:104480007D6025480068BDE8F84302F0C5B80EB469
:1044900078B5204C024604F1A80605AB65213046EC
:1044A00002F0EEF904F130052021697282B2314642
:1044B000204601F0E6FB10B10A2002F05FF8286800
:1044C00090F835100129FAD171BC5DF810FB00B5E8
:1044D00014490D202DED040A087581B00A224A7591
:1044E00001A80A1D0368136002A801F1080203680D
:1044F000136003A801F10C020368136004A801F122
:104500001002036803481360162201F0BAFB05B0DD
:1045100000BD0000D0020020A0080020B765000800
:10452000A00400201800002080B502F0C7F900B1F7
:104530000120C0B202BD000009684A684FEA0001CC
:104540000EA0A4E72C200D0A0000000068656C7026
:104550000000000073686F7720636D6420757361DD
:1045600067650000636D64206E6F742066696E6419
:104570000D0A000068656C703A0D0A0025733A2038
:1045800025730D0A0000000010B50C46FFF7DEFE93
:104590004FEA040002F0B8F902F056FA02F09AFA73
:1045A000BDE810400BA0FFF772BF10B5074C2068A4
:1045B00018B1FFF7F5FE00212160054C206818B105
:1045C00002F0F5F90020206010BD0000100300206B
:1045D0006805002073696D706C656C696220696E96
:1045E000697420646F6E650D0A000000F8B500273D
:1045F00024A41D4D1D4E06EB870090ED000A05EB2F
:10460000870080ED000A10EE100A00F0E3F9024680
:104610000B4639462046FFF73AFF55F82710490068
:104620000816401C03D1090218BF45F827007F1C5B
:10463000122FE0DB0BA0FFF72AFF0D48296801606D
:104640006A680C480260A9680B4A1160E8680B4967
:10465000086095ED040A0A48BDEEC00A80ED000A24
:10466000F1BD00000D0A0000F00600200000020865
:104670001000002014000020080000200C00002082
:1046800064000020666C6173685F646174615B251F
:10469000645D3D256C660D0A0000000080B52DEDBF
:1046A000068B00F051F800F047F800F041F800F0F8
:1046B00037F800F03DF800F02BF828EEA00A09EEDC
:1046C000690A21EE291A01EE080A61EEA00A00EE3D
:1046D000C80A1AE080B52DED068B00F035F800F021
:1046E0002BF800F025F800F01BF800F021F800F09E
:1046F0000FF829EE200A08EEA90A61EE200A00EE62
:10470000C80A61EEA91A01EEC80ABDEC068B01BD0C
:1047100000EE900AA64890ED011AD0ED001A7047FD
:1047200009EE900AB0EE4A0AF0EE6A0A02F0E5B924
:1047300051EC100B02F0EEB941EC1A0BB0EE4A0A44
:10474000F0EE6A0A02F0DFB9B0EE608AF0EE418A5C
:10475000B0EE619A10EE100A00F03CB938B5844909
:104760002DED0C8B0A6847F23050824204D391ED54
:10477000000A00F0F5F803E091ED001AB8EE410AE6
:104780007C4C7D4A84ED020A1368834204D392ED87
:10479000000A00F0E5F803E092ED001AB8EE410AD5
:1047A00084ED030A0020106008609FED749B754D36
:1047B00094ED020A95ED00BAB8EECBBA2BEE000AE2
:1047C00010EE100A00F006F953EC192BFDF712FF5A
:1047D0009FED6DAB00F0BFF89FED6D8B53EC182B88
:1047E000FDF708FF02F096F900EE100A95ED02BA07
:1047F000D4ED030A684C60EE0BBA95ED010AB8EEF1
:10480000C00A60EE200A10EE900A00F0E3F853ECC4
:10481000192BFDF7EFFE00F09EF853EC182BFDF777
:10482000E9FE02F077F900EE900A95ED030AD4ED67
:1048300002CA94ED032A20EE80CAF0EE4C1AB0EEC4
:104840006B1A3CEEC22AF0EE419AB0EE61BA12EE5B
:10485000100A00F0BFF800F07EF800F078F802F0DF
:1048600059F900EE900AF0EE4B1AB0EE691AB0EE6C
:10487000608AF0EE418AB0EE619A1CEE900A00F078
:10488000A9F800F068F800F062F802F043F900F0CF
:1048900097F8FFF703FFF0EE40CA94ED02DA94EDCB
:1048A000030A3DEE400A10EE100A00F093F800F003
:1048B00052F800F04CF802F02DF900EE900AB0EE3C
:1048C000608A1DEE100A00F085F800F044F800F050
:1048D0003EF802F01FF900F073F8FFF7FBFED4ED8D
:1048E000000A94ED011AA0682C4970EEAC0A31EE72
:1048F000000AC4ED000A84ED010AE06091ED000AAF
:10490000B1EE400A84ED020A0EE0DFED250A30EE3A
:10491000200A9FED241AB4EE410AF1EE10FA44BFCA
:10492000DFED210A30EE200A9FED201AB4EE410A95
:10493000F1EE10FAE9DADFED1F0AB4EE600AF1EEEB
:1049400010FAE6D484ED040ABDEC0C8B31BD0022D4
:10495000194BFEF7C9B853EC1A2BFDF74BBE0000FC
:10496000B8EE400ADFED150A30EE200A704700006D
:1049700024080040440000202404004000000000FF
:10498000004049400000002044174154FB210940E9
:10499000000000000000403F30000020A40800207C
:1049A0000000B4C3FFFF33C30000B443010034432D
:1049B00010000020000034C300806640000080C763
:1049C00000EE100AF0EE491AB0EE681AF0EE480A4E
:1049D00070470000C0F3C75181B1FF2906D0C11054
:1049E000400721F0E04101F16051704741020CBFE6
:1049F00040F4E0016FF000410020704700F00041FA
:104A000000020AD0B0FA80FC00FA0CF001F160510B
:104A1000A1EB0C5101EBD021400570472DE9F84383
:104A2000040017D02078B74EC10745D5B06800F014
:104A30000C00042807D0B06800F00C0008280BD147
:104A40007068410208D53068810335D56068002858
:104A500040F0BA80012053E16068B0F5803F04D196
:104A6000306840F48030306011E0B0F5A02F30683D
:104A700006D140F480203060316841F4803105E097
:104A800020F480303060316821F48021316060682A
:104A900068B1FEF721FE05463068810300F194807D
:104AA000FEF71AFE401B6528F6D3032028E1FEF727
:104AB00013FE05463068810340F18680FEF70CFE48
:104AC000401B6528F6D3F0E7FEF706FE401B0228E0
:104AD00040F2A780E9E7E06870B101213960FEF794
:104AE000FBFD05463068810700F1CB80FEF7F4FD41
:104AF000401B0228F6D9D8E73860FEF7EDFD0546E1
:104B00003168880763D5FEF7E7FD401B0228F7D917
:104B1000CBE70860FEF7E0FD0546706F810775D5AD
:104B2000FEF7DAFD401B0228F7D9BEE70528306FF3
:104B300006D140F004003067306F40F0010005E01E
:104B4000400840003067306F20F00400306741F2C9
:104B50008938A06868B1FEF7BFFD8146306F8107D4
:104B600000F19C80FEF7B8FDA0EB09004045F5D3AD
:104B70009BE7FEF7B1FD8146306F810740F18E80E3
:104B8000FEF7AAFDA0EB09004045F5D38DE7FEF73F
:104B9000A3FD401B022840F2968086E7FEF79CFDAD
:104BA000001B022840F2A7807FE700203866FEF74E
:104BB00093FD04463068810140F1A180FEF78CFD31
:104BC000001B0228F6D970E720784F4F81071BD5CC
:104BD000B06810F00C0F09D0B06800F00C00082885
:104BE0007FF479AF706841023FF575AF3068810797
:104BF00003D5E06801287FF42DAF3168206921F0EA
:104C0000F80141EAC0013160217808070DD56069DB
:104C10003E4900283FF47DAF01220A60FEF75CFDAB
:104C20000546706F81077FF54FAF207841073AD571
:104C3000306C0025C1000AD400950125316C41F08B
:104C400080513164306C00F0805000900098DFF8A3
:104C5000C080D8F80000C1051BD4D8F8000040F48B
:104C60008070C8F80000FEF737FD8146D8F80000D4
:104C7000C1050ED4FEF730FDA0EB09000228F5D9DE
:104C800013E73068216920F0F80040EAC100306085
:104C9000BAE7A06801287FF449AF4DE71DB1306C39
:104CA00020F080503064A06948B3B16801F00C0175
:104CB00008293FF4CFAE02287FF477AF0020386692
:104CC000FEF70AFD0546306881013FF560AFE269F5
:104CD000206A616A0243A06A400842EA8112401ECB
:104CE00042EA0042E06A42EA0062726001213966EB
:104CF000FEF7F2FC0446306881017FF54FAF0020DB
:104D0000BDE8F2830038024000004742800E47426F
:104D1000007000402DE9F04104000F4677D0494E65
:104D2000306800F00F00B84202D200F072F86ED185
:104D30002068454D810712D5400703D5A96841F485
:104D4000E051A9602078010703D5A86840F46040CD
:104D5000A860A968A06821F0F0010143A96021784A
:104D6000C8074CD56068012802D129688A0305E08C
:104D7000022818BF032803D129688A0103D446E01A
:104D800029688A0743D5A968890840EA8100A86094
:104D9000FEF7A2FC8046A868616800F00C00B0EB4A
:104DA000810F2CD0FEF798FCA0EB080041F289316E
:104DB0008842F0D3032020E02078410705D5AA6877
:104DC000E06822F4E0520243AA602178080706D581
:104DD000A968206921F4604141EAC001A96000F09E
:104DE0003DF8AA6819491A4BC2F30312895CC840FE
:104DF0001860002000F0DEF80020BDE8F081306887
:104E000000F00F008742D7D200F003F8D4D0012081
:104E1000F3E73770316801F00F01B94270470C4871
:104E20000C4A006813680C49C3F3822206E0084864
:104E3000084A006813680849C3F34232895CC840D5
:104E400070470000003C024000380240A07000089B
:104E50007400002008380240C071000830B5144CBE
:104E6000606800F00C00042802D0082802D01DE081
:104E7000104830BD226820680023410202F03F0242
:104E800004D525680B49C5F3881003E020680A495A
:104E9000C0F38810A1FB0001FDF794FA2168C1F36B
:104EA0000141491C4900B0FBF1F030BD024830BD62
:104EB0000438024000127A000024F40000B500BF5C
:104EC000130096469446103928BFA0E80C50FAD833
:104ED0005FEA417C28BF0CC048BF40F8042BC907DB
:104EE00028BF20F8022B48BF00F8012B00BD0000AE
:104EF0000901020002D4294881547047284B02F06E
:104F00000F021A4402F8041C7047264B19684FF62A
:104F1000FF020002114000F4E06008432249084308
:104F20001860704738B51F4B1C68C4F30223C3F1E7
:104F30000704052C28BF04241D1D072D34BF0023A2
:104F4000DB1E012505FA04F4641E2140994005FA90
:104F500003F35B1E1A401143BDE83440C8E701006B
:104F600007D4012200F01F01104B8A40400943F88A
:104F70002020704710B5401EB0F1807F01D3012082
:104F800010BD0B4C60600F214FF0FF30FFF7B0FFFA
:104F90000021A16007202060002010BD00E400E097
:104FA00018ED00E00CED00E00000FA0500E100E083
:104FB00010E000E038B50D4D0D4B2A7804464FF453
:104FC0007A711868B1FBF2F2B0FBF2F0FFF7D2FF92
:104FD00050B9102C08D2002221464FF0FF30FFF7C5
:104FE000A1FFAC60002032BD012032BD680000206E
:104FF0007400002081B00020009000220A4841681F
:1050000041F480414160416801F480410091009980
:105010000092036843F080530360006800F0805002
:105020000090009801B070474038024038B5040045
:105030001ED094F8200010B92046FEF7F6FD206837
:10504000016821F002010160FEF746FB0546206879
:1050500041688A074ED5FEF73FFB401B0B28F6D36D
:1050600004E0FEF739FB401B0B2846D300F0E4F8C0
:10507000012032BD016821F080010160607E00F0F6
:1050800048F80CBF41F0400121F040010160A07ED2
:1050900000F03FF80CBF41F0200121F02001016039
:1050A000E07E00F036F80CBF21F0100141F0100155
:1050B0000160207F00F02DF80CBF41F0080121F0C5
:1050C00008010160607F00F024F80CBF41F004018A
:1050D00021F004010160A268E0682169024360696F
:1050E0000A43616802432068491E0A43C2610021E5
:1050F0006162A9E000F0ADF8054620684168CA0782
:10510000AFD5217E0129B5D1026842F0800202604C
:10511000B4E70128206801687047F0B590F82020B6
:10512000012A18BF022A54D14D4A106840F00100EC
:105130001060136823F47C53136010684B6A40EAD4
:105140000320106001200B7D03F01F0300FA03F31E
:10515000D069DC432040D061424800F5117500F56C
:105160001076C86958B9D0682040D060CF6800F088
:1051700034F80F68C7EA004C486945F830C0C86980
:1051800001280BD1D0681843D0600F6800F025F8D3
:10519000CE684F69C6EA004045F8370088690028A4
:1051A00050680CBF204018435060086900285069BF
:1051B00007BF0440546118435061086A012802D1B6
:1051C000D0690343D3610020116849084900116088
:1051D000F0BD416A41F48021A8E04868D1F814C0CC
:1051E000C0EA074746F83C708868704738B50446FF
:1051F00094F82000012816D1022184F8201020689C
:105200000268520852000260FEF766FA05462068FE
:105210004168C8070DD5FEF75FFA401B0B28F6D38F
:1052200000F00AF803E0606A40F4002060620120A8
:1052300032BD0020606232BD606A40F400306062BE
:10524000052184F820107047012084F820000020F8
:1052500032BD016841F001010160FEF73DBA000076
:105260000066004000640040F0B590F820400568FA
:10527000AD68012C18BF022C55D115F0E05F4ED05F
:10528000C5F30164032C03D3416A41F400014DE0EE
:105290000125A5401D6024010368CE6803F5C07593
:1052A0008B681BB90B6846EA435603E04F6843EA34
:1052B000C7031E432E5105680B6905F5C2763351AD
:1052C000097D012906D1036803F5C2710D5945F422
:1052D00080750D519379D17955791B0443EA0163A7
:1052E000117943EA0523056825440B43C5F88C3141
:1052F0009378D17855781B0443EA016311780268EA
:1053000043EA052322440B43C2F88831006800F5C4
:10531000C070015941F0010101510020F0BD416A06
:1053200041F4001102E0416A41F480214162012010
:10533000F0BD416A41F48021416201207047F0B51F
:1053400090F82040012C18BF022C66D10029046877
:1053500001D1E56800E0256915F0030F03D1416A2A
:1053600041F400115CE00D0104F5D876745914F095
:1053700004049460066806F5D87603D17459640D68
:10538000146002E07659F6085660046804F5D87691
:105390007759C7F34004D46000F043F806F00F06D5
:1053A000166100F03EF8C6F30724946100F039F866
:1053B000360C566102682A44D2F8B8411C7006685F
:1053C0002E44D6F8B821120A5A7004682C44D4F836
:1053D000B821120C9A7004682C44D4F8B821120E2B
:1053E000DA7000F023F81A7100F020F8120A5A71EE
:1053F00000F01CF8120C9A7100F018F8120EDA7115
:10540000006821B9C16841F02001C16003E0016971
:1054100041F0200101610020F0BD416A41F480218A
:1054200084E704682C44D4F8B461704704682C44C1
:10543000D4F8BC21704790F82020012A18BF022A16
:1054400003D100684269114300E072E74161002026
:1054500070472DE9F84F05464FF000082868466967
:10546000D0F804B08468D0F80C90D0F810A0876908
:10547000F10745D5E20713D501218160A00703D5C7
:10548000284601F07BFB0BE0600748BF4FF4006843
:1054900006D420074EBF4FF48058284601F06FFB1A
:1054A000E00515D52A684FF48071A005916003D5F9
:1054B000284601F065FB0BE0600548BF48F4005842
:1054C00006D420054EBF48F48048284601F059FB19
:1054D000E00315D52A684FF48031A003916003D50D
:1054E000284601F04FFB0BE0600348BF48F400483A
:1054F00006D420034EBF48F48038284601F043FB11
:10550000300748BF5FEAC96104D52968102048F414
:105510000078C860700748BF5FEA097105D52A683E
:105520000820D060284601F07DFAB00707D5296829
:10553000C86810F0030F1CBF284601F047FA700638
:1055400048BF5FEACA6104D52968102048F4806822
:105550000861B00648BF5FEA0A7105D52A680820CD
:105560001061284601F010FBF00607D5296808698C
:1055700010F0030F1CBF284601F007FBB00348BF23
:105580005FEACB6105D52A6810205060284601F0FB
:10559000FDFAF00348BF5FEA0B7105D52A680820C1
:1055A0005060284601F0F3FA300440D55FEA4B71B1
:1055B0003AD5F00503D5F90748BF48F00108B00512
:1055C00003D5B90748BF48F00208700503D579072D
:1055D00048BF48F00408300526D517F0700F23D0D7
:1055E00007F07007102F0CD0202F0DD0302F0ED0C9
:1055F000402F0FD0502F10D0602F08BF48F4807874
:105600000DE048F008080AE048F0100807E048F00C
:10561000200804E048F0400801E048F080082868CD
:10562000816921F070018161042029684860B8F126
:10563000000F08D0686A48EA000068622846BDE8A2
:10564000F24F01F0A5BABDE8F18F0000F8B50400F3
:105650001BD004F13C05697821B900202870204650
:10566000FEF74EFB24216970206802685208520040
:105670000260FFF7D4FB01466068DFF8F420904237
:1056800005D2DFF8F030994205D20120F2BDDFF8F3
:10569000E8008142F9D32068DFF8E0304668B1FBCA
:1056A000F3F3B60943EA861646602668376A6068EF
:1056B000904206D34FF4967043434FF47A70B3FB95
:1056C000F0F35B1CBF0943EA87133362491E23686A
:1056D000DE696768974206D27F0000F043F804292C
:1056E00013D2042111E0A06820B907EB470700F0AE
:1056F00039F805E01920474300F034F841F48041BF
:1057000008050CBF012141F40041DFF87400064098
:105710000E43DE6122681368E169206A23F0C0034A
:105720000B43034313602268DFF858009368216934
:105730000340E0680B43034393602168CA68A36990
:105740006069120A034343EA0222CA6020680168C2
:1057500041F0010101600020686020216970206330
:10576000A870F2BDB1FBF7F1491CC1F30B01704702
:10577000A186010080841E0000093D0040420F0008
:105780000030FFFF007CFFFF02206870211D2068B1
:1057900000F0FEF801206870002032BD38B504002A
:1057A00001D1012032BD00F00AF818B900F003F869
:1057B000FEF7D2FBE8E7002129702046704704F18C
:1057C0003C0568787047F8B504000E4601D1012009
:1057D000F2BDFFF7F4FF18B9FFF7EDFFFEF771FB1D
:1057E000022068702168DFF89C018A6802408A60A4
:1057F000211D206800F0CCF82268DFF88C11936836
:105800009069176A0140B0680843B16940EA012015
:10581000DFF878110140F0680843F16940EA01219E
:10582000306941EA0010316A40EA013C70687169F0
:1058300027F0AA0707433068034347EA011793603C
:105840002168C1F818C00121206807626970002032
:10585000F2BD10B5044609B1042901D1012203E0CB
:1058600000F013F801220421206800F0A1F9FFE7FD
:10587000206800F005F8002010BDC16001223068EA
:10588000016841F001010160704720680122002198
:1058900000F08EB970B500F063F801D1022070BD40
:1058A00000F06BF832B1042A17D0082A28D00C2A4D
:1058B00039D04AE03068294600F0B5F8306881698F
:1058C00041F0080100F048F821F0040181613168DD
:1058D0008A69286902438A6137E03068294600F006
:1058E000CEF83068816941F4006100F035F821F4A8
:1058F000806100F031F82A6941EA0221816124E0E7
:105900003068294600F0EBF83068C16941F00801C1
:1059100000F01EF821F00401C1613168CA692869EC
:105920000243CA6111E03068294600F007F9306887
:10593000C16941F4006100F00BF821F4806100F0CE
:1059400007F82A6941EA0221C16100F010F870BD30
:10595000C1613068C1697047816130688169704791
:10596000064606F13C040D462078012870470120C8
:1059700060700021217000207047012020700221FA
:1059800061707047F8BFFFFFFCFCFFFF0303FFFFE0
:10599000F0B57C4C05687C4B7C4E7D4FDFF8F4C144
:1059A000A04218BFB0F1804F07D0604518BFB84281
:1059B00003D0B04218BF98420DD14A6825F0700557
:1059C0001543A04218BFB0F1804F17D060451CBFEF
:1059D000B842B04212D098421CBF6F4A90420DD0DC
:1059E0006E4EB0421CBF6E4A904207D06D4EB04220
:1059F0001FBF6D4A90426D4EB04203D1CA6825F474
:105A0000407515434A6925F0800515430560A0429D
:105A10008D68C5620A68826212BF98420969016393
:105A200001224261F0BDF0B5026A564F52085200A1
:105A30000262066A446885690B688A6825F0730506
:105A400026F002061D4316434F4BB84218BF98423A
:105A500007D1CA6826F008061643B84226F00406A5
:105A600001D0984205D14B698A6924F440741C43E3
:105A7000144344608561496841630662F0BDF0B536
:105A8000026A404E22F010020262B042056A436888
:105A900084690A6824F4E64444EA02248A6825F00A
:105AA000200545EA0215384A18BF904208D1CF6850
:105AB00025F0800545EA0715B04225F0400501D0E4
:105AC000904206D14E698A6923F44063164343EA43
:105AD000860343608461496881630562F0BDF0B567
