:020000040800F2
:10000000800C0020F5910008FD900008FF9000088A
:10001000019100080391000805910008000000000C
:100020000000000000000000000000000791000830
:1000300009910008000000000B9100080D910008D4
:100040001F92000823920008279200082B920008B4
:100050002F92000833920008379200083B92000864
:100060003F92000843920008479200084B92000814
:100070004F92000853920008579200085B920008C4
:1000800011910008179100085F9200086392000820
:100090001D9100082191000829910008679200082D
:1000A0006B9200086F920008739200087792000824
:1000B0007B9200087F9200088392000887920008D4
:1000C0008B9200088F920008939200089792000884
:1000D0009B9200089F9200082B910008A3920008B1
:1000E000A7920008AB920008AF920008B3920008F4
:1000F000B7920008BB920008BF920008C3920008A4
:10010000C7920008CB920008CF920008D392000853
:10011000D7920008DB920008DF920008E392000803
:10012000E7920008EB920008EF920008F3920008B3
:10013000F79200080000000000000000FB92000899
:10014000FF92000803930008079300080B93000830
:100150000F93000813930008179300081B930008DF
:100160001F93000823930008279300082B9300088F
:100170002F930008339300080000000000000000E7
:10018000379300083B93000800F5E0700268914245
:1001900003D343681A44914202D380680028F5D102
:1001A0007047DFF80817086890B94FF4805048602E
:1001B0004FF480324FF0FF30C86008610420DFF850
:1001C000F0368A604861C3F8BC01DFF8E8060860D1
:1001D0000120704701F1080313F0070F0EBF002341
:1001E000C3F1080303F007031944D21A8161C26006
:1001F00042F001034B60091D4FF0280C41F802C08A
:10020000DFF8A8261369C36170472DE9FC4B074648
:1002100001F1080010F0070F0FBF8946C0F1080078
:1002200000F0070001EB000902F1080111F0070FCF
:1002300006D002F10800C0F1080000F007000244F7
:100240001546A5EB090009EB0306A0EB030B43F0F1
:100250000303C9F80430AE4228BF00F055FF2879E7
:10026000C10758BF00F050FFBBF1100F38BF00F0BE
:100270004BFFB869854208D1F9688B44C7F80CB0C8
:10028000BE614BF00100706051E1786985420AD18E
:10029000B9688B44C7F808B07E614BF0010070600C
:1002A00046F80BB043E1686800F00301012940F013
:1002B000AC80C008C0000190C0081F2839D8AC68C5
:1002C000D5F80C800090454508BF00F01DFFA54201
:1002D00008BF00F019FF68680099C008C000B0EBC3
:1002E000C10F18BF00F010FF009907F1280000EBC4
:1002F000C100844206D039698C42C0F08180E26836
:10030000AA427DD1A04506D10098396801238340D7
:100310009943396076E0804506D0396988456FD3C6
:10032000D8F80800A8426BD1C4F80C80C8F808407F
:1003300068E0EC68D5F81880AC420CD0A868396940
:10034000884223D3C268AA4204BFA168A9421DD132
:10035000C460A0601CE005F114010C6834B905F11B
:1003600010010C68A4B101E011460C6804F11402FC
:100370001068002802BF04F1100210680028F3D1B1
:100380003869814202D300220A6001E000F0BCFE1D
:10039000B8F1000F36D0E96907F5987000EB8100DD
:1003A0000268954208D10460A4B9E869796801221D
:1003B00082409143796025E03869804508D3D8F8B8
:1003C0001010A94214BFC8F81440C8F8104001E04A
:1003D00000F09AFEB4B139698C4211D3C4F8188088
:1003E000286928B1884226BF2061846100F08CFE14
:1003F000686938B13969884202D36061846101E07B
:1004000000F082FE01996D188B4469684908490023
:1004100069604BF0010070604FEADB0446F80BB0F6
:100420001F2C23D807F1280000EBC4084546BBF178
:10043000100F38BF00F068FE386820FA04F1CA07D0
:1004400005D4012101FA04F404433C6007E0D8F824
:100450000800396988422CBF054600F055FEC8F8EF
:100460000860EE60B560C6F80C8060E05FEA1B20B3
:1004700008BF002123D0B0F5803F28BF1F211ED226
:10048000A0F58072120C02F008029040A0F5805195
:10049000090C01F004018840A0F580431B0CC2F157
:1004A0000E0203F00203521AD21A984002EBD03225
:1004B000D01D2BFA00F101F0010101EB4201F161C5
:1004C000002307F59872736102EB810033617A684B
:1004D00022FA01F3DC0707D4012303FA01F11143E7
:1004E00079600660B0611DE002681F291DBF4908E0
:1004F000C1F119010BFA01F1594600E002465068BA
:10050000C008C000584516D002F11003C80F03EB15
:100510008003490018680028F0D13869834204D369
:100520001E60B261F660B66001E000F0EDFD09F119
:100530000800BDE8F68B396990688A4228BF884276
:10054000F3D3C6609660B060F2600020B061EEE761
:100550002DE9FE4F04468B46A5692E4690469946E6
:100560003146FFF711FE0268416802EB010AAAF169
:10057000270111F007000EBF0021C1F1080101F0B1
:1005800007010AEB0100A0F12F0706F110018F42CD
:1005900038BF374607F11802002101920091A8F1F7
:1005A000280259462046FFF715FE07F1080010F013
:1005B000070F18BF00F0A8FD1B20786007F10801A5
:1005C00004F5E07090E80C5081E80C50C0F800B0E1
:1005D000C0F80480C0F80C9081600722019800994F
:1005E00000E0001D491C00F1080353454260F8D3A8
:1005F0000129D8BF00F088FDB74200F09580BF1BED
:10060000301D321DC15949084900D15147F0010040
:1006100070604FEAD70BF751BBF11F0F21D804EBE5
:10062000CB0000F12805A846102F38BF00F06CFD64
:10063000206820FA0BF1CA0705D4012101FA0BF159
:100640000843206006E0A868216988422CBF8046E4
:1006500000F05AFDAE60C8F80C60C6F80880F5607E
:100660006FE0380A08BF002123D0B0F5803F28BFD3
:100670001F211ED2A0F58072120C02F008029040D9
:10068000A0F58051090C01F004018840A0F58043D9
:100690001B0CC2F10E0203F00203521AD21A984048
:1006A00002EBD032D01D27FA00F101F0010101EB7D
:1006B000420104EB8102002302F59870F16173613D
:1006C0003361626822FA01F3DB0707D4012303FADE
:1006D00001F1114361600660B0611DE002681F29ED
:1006E0001DBF4908C1F1190107FA01F1394600E0BF
:1006F00002465068C008C000B84216D002F110038C
:10070000C80F03EB8003490018680028F0D1206966
:10071000834204D31E60B261F660B56011E003B09D
:10072000BDE8F04F00F0F0BC0BE0216990688A4210
:1007300028BF8842F3D3C6609560B060F2600020A5
:10074000B06103B0BDE8F08F2DE9F041574F054689
:100750003868884608B9FFF724FDB96801EB08003E
:100760002F30491E20EA010188457DD205F5D87653
:10077000B06828B1326889188A4275D2884273D32A
:1007800000F002FD01001CBF0C6811F1010F6BD0DD
:100790003068201805F5D87230605368984238BF29
:1007A00018467060A86960BB286908B1814200D210
:1007B0002961316174610020F0614FF0FF303A68C7
:1007C0006A62286205F128020020D260926002F17C
:1007D000080757611761801C10322028F5D3344870
:1007E000854208BFA4F1280228D055F8040CC0089F
:1007F00005EBC002A2F108000A19121A283A0146B4
:100800001CE005F5E070024600E092687AB31368D8
:1008100057681F44B942F8D1137B1F0727D4AB692F
:100820001768BB4223D3D2F804C06744BB421ED230
:10083000A444C2F804C0E868A96922182846FFF752
:10084000C9FC1FE08068C0B103689342FAD1027B03
:10085000130712D4026801604368E41844604346F9
:100860002846BDE8F041D0E40020BDE8F0812A69C7
:10087000914238BF29610A19E5E70023224628463C
:10088000FFF766FEE8688045EED2A0EB0800A96994
:10089000E86001EB0802AA6140F00100506048F0F6
:1008A0000300486001F10800BDE8F0815408002011
:1008B000C00000206859883C2DE9F84F0025894682
:1008C000090AC9F1000B08BF002323D0B1F5803F0E
:1008D00028BF1F231ED2A1F58072120C02F008025D
:1008E0009140A1F580531B0C03F004039940A1F53E
:1008F0008044240CC2F10E0204F00204D21A121B2E
:10090000A14002EBD132D11D29FA01F303F001031A
:1009100003EB4203074607F5987858F8230030B3F5
:100920001F2B0FBF4C465C08C4F1190409FA04F4EC
:10093000AC46594600E064004268D208D200A2EBFF
:1009400009028A4203D21100054600F0698142691A
:1009500010304FEAD47B50F82B00002A1CBF824293
:1009600094460028E7D18B466046B0BBBDBB012250
:1009700002FA03F35B005842796803430B4000F02E
:100980004E81584203405B1E180B00F01000C3401C
:10099000590901F00801CB409A0802F00402D34043
:1009A0005C0804F002040818E3401018C3F3400682
:1009B00020183044F3401B1858F823000DE0084677
:1009C0004168C908C900A1EB090159453CBF8B46E4
:1009D000054601690029F2D140690028F0D1002DB7
:1009E00000F01D81B868A0EB0900834580F01781F5
:1009F00039698D42C0F011816868C008C00009EBF8
:100A00000B01884218BF00F07FFB05EB0906B542D9
:100A100080F00381EC68D5F818A0AC420CD0A8682F
:100A20003969884223D3C268AA4204BFA168A94297
:100A30001DD1C460A0601CE005F114010C6834B93C
:100A400005F110010C68A4B101E011460C6804F135
:100A500014021068002802BF04F110021068002878
:100A6000F3D13869814202D300220A6001E000F02C
:100A70004BFBBAF1000F36D0E86908EB8000016843
:100A80008D4209D10460200014D1E86979680122FF
:100A900082409143796026E03869824508D3DAF8CC
:100AA0001010A94214BFCAF81440CAF8104001E05F
:100AB00000F02AFBBCB13869844212D3C4F818A0F4
:100AC000286930B13969884226BF2061846100F00D
:100AD0001BFB686938B13969884202D3606184615F
:100AE00001E000F011FBBBF1100F0CD2D94449F02A
:100AF0000300291D6860281D51F8092042F00102F9
:100B000040F8092088E049F0030068604BF00100DC
:100B100070604FEADB0046F80BB01F281DD807EBCA
:100B2000C00101F12804396821FA00F2D307A34675
:100B300005D4012202FA00F00843386006E0A068FC
:100B4000396988422CBF834600F0DEFAA660CBF8F4
:100B50000C60C6F808B0F4605EE05FEA1B2008BFD6
:100B6000002123D0B0F5803F28BF1F211ED2A0F561
:100B70008072120C02F008029040A0F58051090C1E
:100B800001F004018840A0F580431B0CC2F10E0265
:100B900003F00203521AD21A984002EBD032D01D51
:100BA0002BFA00F101F0010101EB4201F161002299
:100BB0007261326108EB81007A6822FA01F4E3077E
:100BC00007D4012404FA01F1114379600660B06191
:100BD0001DE002681F291DBF4908C1F119010BFA68
:100BE00001F1594600E002465068C008C00058456F
:100BF00018D002F11003C80F03EB800349001868F6
:100C00000028F0D13869834204D31E60B261F660D7
:100C1000B66001E000F078FA14E100F075FA0EE138
:100C20008B46A2E6396990688A4228BF8842F1D390
:100C3000C6609660B060F2600020B061ECE72DE91C
:100C4000F84F06468846716848420140491E080B25
:100C500000F01000C1404A0902F00802D1408B08A0
:100C600003F00403D9404D0805F002051018E940CF
:100C70001818C1F34004281806F5987A2044E1407A
:100C800009185AF821104868C008C0000D46A0EBAA
:100C9000080909E001464868C008C000A0EB080048
:100CA00048453CBF81460D4608690028F2D1496994
:100CB0000029F0D130698542C0F0BF806968C90859
:100CC00008EB090BC900594518BF00F01DFA05EBE8
:100CD00008008542009080F0B080EF68AC69AF42B8
:100CE0000CD0A8683169884223D3C268AA4204BFE5
:100CF000B968A9421DD1C760B8601CE005F11401B4
:100D00000F6837B905F110010F68A7B101E011466E
:100D10000F6807F114021068002802BF07F11002E3
:100D200010680028F3D13069814202D300220A60A2
:100D300001E000F0E9F9002C31D0E8690AEB80000D
:100D400001688D4208D107608FB9E8697168012296
:100D500082409143716022E03069844205D3216969
:100D6000A94214BF6761276101E000F0CDF9B7B176
:100D70003069874211D3BC61286930B1316988423A
:100D800026BF3861876100F0BFF9686938B1316901
:100D9000884202D37861876101E000F0B5F9B9F1CA
:100DA000100F0BD24BF00300291D6860281D51F86D
:100DB0000B2042F0010240F80B203DE048F0030117
:100DC0002A1D696049F0010042F80800009941F8C5
:100DD0000990D6F808804FEAD80BBBF1200F28BF46
:100DE00000F092F9B8F1000F22D006EBCB00776942
:100DF00000F12804A246B8F1100F38BF00F084F9C2
:100E0000306820FA0BF1CA0705D4012101FA0BF171
:100E10000843306006E0A068316988422CBF8246F2
:100E200000F072F9A760CAF80C70C7F808A0FC605F
:100E3000C6F808900098706104E000F065F90020A1
:100E4000BDE8F28F05F10800BDE8F28F2DE9FE4FF5
:100E50000546AFF30080F52DDFF8A86280F004812D
:100E60000B2D31BF10250B35ED08ED003068EC0877
:100E7000E04010F0030F46D0C04300F00100041919
:100E800006F1280000EBC408E700D8F808506868AD
:100E9000C008C000B84218BF00F036F9D5F8089075
:100EA000454508BF00F030F94D4508BF00F02CF96A
:100EB0006868C008C000B84218BF00F025F9C845EE
:100EC00007D13068012101FA04F420EA04043460F7
:100ED0000DE03069814508D3D9F80C10A94204D13E
:100EE000C8F80890C9F80C8001E000F00DF947F04F
:100EF0000300291D6860281DCA5942F00102C25131
:100F000005F10804F8E0B168A94280F0BE8000282D
:100F100000F0A1804FF0010808FA04F1490000FA3E
:100F200004F4484201430C4060420440641E200B1C
:100F300000F01000C440610901F00801CC40A20893
:100F400002F00402D440630803F002030818DC40F6
:100F50001018C4F3400718183818FC40241806F17C
:100F6000280000EBC40AE700DAF80890D9F804007A
:100F7000C008C000B84218BF00F0C6F8D9F808B0E1
:100F8000D14508BF00F0C0F8D94508BF00F0BCF853
:100F9000D9F80400C008C000B84218BF00F0B4F887
:100FA000DA4506D1306808FA04F420EA0404346013
:100FB0000DE031698B4508D3DBF80C00484504D1BE
:100FC000CAF808B0CBF80CA001E000F09DF87F1B38
:100FD00045F0030009F10402C9F8040047F00101DB
:100FE000515109EB05020192D751B4684FEAD40A76
:100FF000BAF1200F28BF00F087F834B3CDF800A075
:1010000006F12800756900EBCA0AD346102C38BFD8
:1010100000F07AF83168009821FA00F2D30704D47E
:1010200008FA00F00843306007E0DAF80800316998
:1010300088422CBF834600F067F8CAF80850CBF806
:101040000C50C5F808B0C5F80CA0B76009F1080449
:101050000198706150E07068C0B329463046FFF7D0
:10106000EEFD040011D047E015F1400F28BF4FF00E
:10107000FF350AD20B35ED087068ED0028B129461E
:101080003046FFF719FC040036D1B068A8421DD3E2
:10109000411B726910290AD350197061B16041F087
:1010A00001034360415045F0030555600BE000210A
:1010B000B1607161131D40F003015160111D1C5896
:1010C00044F001040C5002F1080415E0F068854278
:1010D0000DD2401BB169F0604A19B26140F00100C5
:1010E000506045F003054D6001F1080404E0294615
:1010F0003046FFF729FB0446AFF300802046FFF798
:1011000020BB0000C0000020012000F053B8F0B464
:101110000246106895681318506803EB5004C00726
:101120001DD54D441BE013F8017B05F8017B491EDA
:10113000F9D1A0B1B60813F8011B06F00306032E7F
:1011400008BF13F8016B01EB06214942801C2944BA
:1011500005D011F8016B05F8016B401EF9D1A342CF
:101160000ED013F8016B16F0030104BF13F8011B36
:10117000C91C30090F28DAD113F8010B0F30D6E75C
:10118000F0BC02F10C0070470749086808B1002064
:1011900070470648C008C00008600549C908C90072
:1011A000091A0160704700BF7C080020870C0020EE
:1011B000801C002080B5AFF30080024A1100182087
:1011C000ABBEFBE7260002002DE9F04F0FF2A41C96
:1011D000A1B0DCE90089CDE900892A9DDFF8109CE7
:1011E000049100248DF843500D944FF0FF3882464F
:1011F00016461F460FE0B3462C461BF8011B049809
:10120000D0470028049000F0A2800D98401C641E76
:101210000D90F2D176193078252808D100210022CE
:101220000791089209910A920B910C920DE06A467F
:101230004146304600F0F2FF050001D10D98A1E0D3
:10124000D9D50125E6E741F0010116F8010F202864
:10125000F9D023280CD02B2804D02D2805D03028F5
:1012600009D076E041F00201EFE741F00401ECE73C
:1012700041F00801E9E741F01001E6E70F9209E0CB
:101280000F98484505DA00EB800402EB4402303A3F
:101290000F92761C3278A2F130000A28F0D3307811
:1012A0002E2818BFCDF8388022D116F8010F2A2831
:1012B00007D138683860761C50F8042B38600E92DD
:1012C00016E02D280CBF761C002000220E920AE0AA
:1012D00040B90E9A4A4505DA02EB820403EB440357
:1012E000303B0E93761C3378A3F130020A2AEFD3F9
:1012F000ADF8401021A0317800F09AFF08B116F83F
:10130000010B8DF842009DF84200682804D1307826
:1013100068280AD1622105E06C2804BF30786C2867
:1013200003D171218DF84210761C12A806903A461E
:1013300016F8013B02A9504600F064F838B912AA29
:1013400002A9504600F0CAF900287FF564AF404674
:1013500018E02A2892D13A683A6052F8040B3A60B1
:1013600000280F9003D540420F9041F00401761CF5
:1013700095E700000000000000000000686A6C743F
:101380007A4C000021B0BDE8F08F622820D0682898
:1013900011D06A2803D06C2827D0712825D108687D
:1013A000C01D20F007000860D0E900230830086065
:1013B000194610467047002A0A680A60106803D070
:1013C000121D0A6000B217E0121D0A6080B217E019
:1013D000002A0A680A60106803D0121D0A6040B231
:1013E0000AE0121D0A60C0B20AE0002A0A680A6018
:1013F000106803D0121D0A60C1177047121D0A60E1
:10140000002170477CB50D4611461C462E69B4F18B
:10141000250200F051811C3A00F08680121F022A3A
:1014200040F282800E3A00F00B81521F5AD0093AE6
:101430007AD0921E16D0521E35D0521E022A73D96F
:10144000121F30D0521F00F09A80521E4AD0521EF6
:1014500000F0E480D21E00F00181921E42D0D21E24
:1014600040D02FE195F83A406C2C09D06869421CB5
:101470006A610A680A6052F8043B0A6033542BE13F
:101480000A680A6052F8043B0A6000930022019245
:101490004FF0FF332B636A46294600F09AF9002883
:1014A00040F11A8105E195F83A000122FFF76DFF3E
:1014B000C5E900010023994204DA6869411C6961A9
:1014C0002D220DE0288F810704D56869411C6961D0
:1014D0002B2205E0C00722D56869411C69612022E2
:1014E00032541CE095F83A000022FFF74EFFC5E9A0
:1014F000000195F83800010711D5D5E90023002037
:10150000834208BF82420AD044F02000782806D1E6
:10151000686930213154401C421C6A6134542146B0
:1015200068693044E86087E00868C01D20F0070063
:101530000860D0E9002308300860C5E90023D5E938
:101540000001C80F04D06869411C69612D220DE0BB
:10155000288F810704D56869411C69612B2205E049
:10156000C00704D56869411C69612022325468694A
:101570003044E8602146284600F03AFAACE005F134
:101580003A02507820B14FF0FF340FF6343074E057
:101590001078622808D0682824D06A2812D06C28D5
:1015A0002ED071280ED02BE00A680A6052F8040B86
:1015B0000A6020B94FF0FF340FF61C305DE0E96A95
:1015C000017089E00A680A6052F8040B0A6020B9C9
:1015D0004FF0FF340FF600304FE0EA6AD317C0E94E
:1015E000002379E00A680A6052F8040B0A6020B907
:1015F0004FF0FF340FF6E0203FE0E96A01806BE036
:101600000A680A6052F8040B0A6020B94FF0FF34F0
:101610000FF6C42031E0E96A01605DE00A680A6003
:1016200052F8040B0A60002120F0000221F0FF3381
:10163000C5E90023EE607821284600F02DF94BE043
:101640006C2285F83A200B680B6053F8042B0B6072
:1016500052BB4FF0FF340FF6B4200EE095F83A205D
:101660006C2AF0D00868086050F8044B0860EC6001
:101670003CB94FF0FF340FF6782000F0F3FD201A4C
:1016800076BD2E6B002E04D5204600F00BFE0446DE
:1016900008E032460021204600F02CFE002814BF4E
:1016A000041B3446AC6117E0294600F092F800288C
:1016B00012D54FF0FF3076BD6869411C6961252263
:1016C000325409E06969481C68612522725421007E
:1016D00002D0431C6B613454002076BD2DE9F041EB
:1016E0000E4605469046726B7069316AB46A121AEA
:1016F000B069521A716A121AF069521A121A96F8DF
:101700003800141B41070DD4002C0BDD2746B068B0
:101710002021A8470028B06057D0F06A401C7F1EE7
:10172000F062F4D1736942463146284600F0B0FCBD
:1017300000284AD1376A002F0ADDB0683021A84757
:101740000028B06041D0F06A401C7F1EF062F4D1E6
:10175000B369F2683146284600F09AFCA8BB776A64
:10176000002F09DDB0683021A847B06068B3F06A87
:10177000401C7F1EF062F5D1F068B169F369421830
:101780003146284600F084FCF8B9B76A002F09DD1D
:10179000B0683021A847B060B8B1F06A401C7F1E25
:1017A000F062F5D196F8380041070BD5002C09DD21
:1017B000B0682021A847B06038B1F06A401C641EB0
:1017C000F062F5D10020BDE8F0814FF0FF30BDE8B8
:1017D000F0812DE9F8470D46A3B02F6B002F064688
:1017E000904648BF6FF000470FF63C1400F0AEFD86
:1017F000D4E90023696B4018CDE90123812828BF73
:101800004FF0FF3042D20024002F33DDD8F8001013
:1018100001AA684600F004FD8146B9F1000F38D4F2
:10182000D8F8000010B9B9F1010932D44F4521DBD5
:101830006869484481280AD30021696303AA2946BC
:101840003046FFF74BFF040014D40020686103AB5F
:10185000D5F814A04A46694603EB0A0000F07CFD67
:10186000CA44C5F814A058F8040B002818BFA7EB09
:101870000907C9D14CB903AA29463046FFF72EFF04
:10188000044614B9002068616863204624B0BDE8AE
:10189000F0874FF0FF34F8E72DE9FC4707468C4608
:1018A0003E69BCF16F0F08BF082405D04CF0200042
:1018B000782814BF0A2410243C25D7E90023BCF162
:1018C000640F18BFBCF1690F9046994606D10021FC
:1018D0008B4203DAD8F1000869EB49094FF0000A9E
:1018E000D14508BFD0451FD1386BE8B9082C4BD182
:1018F00097F83800010747D530203B2586F83B0094
:1019000042E000280ED597F8380000F014001028A7
:1019100008D17B6B7969386A5B1A1B1A9A1A002AFC
:10192000C8BF3A62BDE8F3878DF800C0404649461B
:101930002246E31700F064FD3032D0B26D1E3A2823
:10194000019504DB9DF80000A0F151018A18725541
:10195000404649462246E31700F052FD894680463C
:10196000D14508BFD04503D0F86871198842DDD34E
:10197000082C09D197F83800010705D5705D30288B
:1019800002D06D1E30207055C5F13C02BA6171194C
:10199000F960386B8242B4DA821A3A624FF6EF701D
:1019A000398F01403987BDE8F3872DE9D0430646DA
:1019B0000F4614464FF00008DFF8389412E0E007B5
:1019C00007D542464B463046394600F031FE0646C2
:1019D0000F464046494642464B4600F029FE6410F9
:1019E00080468946002CEAD130463946BDE8D0838E
:1019F0002DE9F34F054641F020048DB0D5E900896B
:101A0000612C02AE09D0286B002848BF062003D401
:101A100008BF672C01D101202863D5E900235800B5
:101A20004015401C0ED119030CD00320A8619DF86D
:101A3000381061391A2902D20FF2F46111E00FF265
:101A4000F4610EE059004915491C0FD118030DD15E
:101A50000320A8619DF8381061391A2914D30FF2B8
:101A6000DC61E868032200F077FCD3E1194621F03D
:101A70000043B3F5801F10460DD20027BB4208BFBC
:101A8000BA42019703D111E00FF2AC61E9E701AA74
:101A900000F0A0FE0AE0DFF8607307EB1352DFF8F6
:101AA0005C3301921940DFF858331943C5E900014E
:101AB000612C0ED1E86830210170821CEA609DF82B
:101AC000381061290CBF7821582141706869801C49
:101AD0006861D5E900AB2BF0004300202AF000023A
:101AE000834204BF8242002300F05B81612C40F0FE
:101AF000AA80286B002847BF21210091401C00903C
:101B0000009F7F1C404649460022002300F09AFEB9
:101B1000D94601998DF8082038BF89F00049091F7E
:101B2000002FD04601910DF1090040F34981B349DE
:101B3000DFF8D0B20C910646404649460022002309
:101B400000F098FE80F03B814800400D00F11C023F
:101B500011D0002A0FDD40F2FF70824205DB09F050
:101B6000004040EA0B01002013E00C98014041EADC
:101B7000025140460DE029F00043002028F0000209
:101B8000834208BF82420FBF40461C22404600F0FD
:101B900089FE8046894600F023FFFF1F002F044680
:101BA00009DD00F03BFF02460B464046494600F087
:101BB00047FF80468946F01D072104E004F00F022C
:101BC00000F8012D2411002C01DD491EF6D5491E17
:101BD0005CBF002200F8012DF9D5ECE00020194689
:101BE00002AA0A4400E05B1E12F80149491E844221
:101BF000F9D00F2804D10DF10900425C521C425467
:101C0000002904D50198001D02AE5B1C0190591EED
:101C100012D49DF838007218A0F13A07147804F134
:101C200030085FFA88F43A2CA8BFB844491E02F87D
:101C30000189F3D58DF83800286B002840F1B08079
:101C4000591E2963ACE0404649460022002300F0BB
:101C5000F9FD019938BF89F0004947F29750414397
:101C6000694A91FBF2F20192D2F1070204DD40468B
:101C70004946FFF79AFE0AE0524200206349FFF707
:101C800094FE02460B464046494600F04BFF804614
:101C9000662C286BDFF878B106BF019F0A3706274C
:101CA0003F18142FC8BF142730208DF8080089462C
:101CB0000DF1090000E03046002F34DD06464046B5
:101CC000494601F053F801460A4606F1080304208C
:101CD0000A26B2FBF6F606EB860EA2EB4E02303277
:101CE00003F8012C0A22B6FBF2F202EB820EA6EBFD
:101CF0004E063036401E03F8026DE9D1083F002F32
:101D000003F10806D7DD084601F044F802460B4609
:101D10004046494600F094FE00225B4600F088FCF5
:101D200080468946CBE70DF10901401A0DF10906FD
:101D300004E00199491E401E0191761C317830293A
:101D4000F7D0662C02D10199491C03E0652C0CBF29
:101D5000012100212B6BCB189842B8BF431E002BEA
:101D60001ED4834204DAF05C3528A8BF392000DA9B
:101D700030201946721E02EB010800E05B1E18F8C5
:101D80000199491E8145F9D0392802D1705C401C67
:101D90007054002904D50198401C16465B1C019024
:101DA000019800B200901BB29DF8381032462846C8
:101DB00000F034F82EE0C61D002F3FF7BDAE3046D0
:101DC0000DF10901401A009903468842C8BF0B462D
:101DD000002B0DF109063FF52FAF8342BFF6FEAE93
:101DE0000DF10900C15C07297FF7F8AE0F20F6E678
:101DF000CBCCCC0C0000244002FCFFFFFFFF0F8087
:101E00000000E03F0000F07FA08601000000F03FEE
:101E100084D797410FB0BDE8F08F00002DE9F84757
:101E200083B006468A461746984600F0FBF9B8F19B
:101E3000000F406A356B90F8009002DC4FF001080B
:101E4000BFA74AF02000BDF93040662808BF641CD7
:101E500015D0672840F0848014F1040FC0F286800A
:101E6000AC4280F2838096F83800641C010702D4EB
:101E7000A845B8BF454620B22D1A48BF00250FFA25
:101E800084FAF068B169BAF1000F25DC4A1C3023EE
:101E90004354002D03DC96F83800010703D5F068A1
:101EA00000F80290521C15EB0A0FB8BF6C4220B22A
:101EB000441941424445B8BFA046B26171620FFA6D
:101EC00088F5F561F068B3692A463946184400F090
:101ED00043FA641BB462C4E022B29045084417DAA6
:101EE0004246394600F038FAB0694044B061AAEB86
:101EF0000801002D716203DC96F838100A0705D539
:101F0000F16801F80090F069401CF061B562A8E04A
:101F1000394600F021FAB069002D5044A8EB0408BE
:101F200003DC96F838100A0703D5F16801F8009031
:101F3000401CB0610FFA88F08542F368B069B8BF01
:101F4000A8460FFA88F207EB0A01184400F004FAD9
:101F5000B1690FFA88F00144B161281A706280E01B
:101F6000BAF1610F14D14FF0700A16E0A84504DAF7
:101F700096F838100A0758BF45466D1E48BF002521
:101F8000BAF1670F14BF4FF0450A4FF0650A04E03D
:101F9000BAF1410F08BF4FF0500AB169F368481C0D
:101FA000B061002D17F8012B5A5403DC96F8381055
:101FB0000A071BD5F168431CB36101F80090002D9E
:101FC00014DDA8F101080FFA88F039468542F76858
:101FD000B8BFA8460FFA88F2F81800F0BDF9B0694A
:101FE0000FFA88F108446D1AB0617562F068B16942
:101FF0000844002C80F800A003D42B224270811CDE
:1020000003E02D2141706442811C00206A460AE0F1
:1020100023460A2493FBF4F404EB8405A3EB450365
:1020200002F8013B401C24B2002CF1DC012806DC44
:102030004AF02002652A04BF302201F8012B48B97A
:10204000302001F8010B07E0401E1DF8003030334E
:1020500001F8013B0028F7DCF268B0691044091A66
:10206000F16196F8380000F0140010280DD1726963
:10207000B169706A8A18F1698218B06A8A18821880
:10208000706B8242BCBF821A326204B0BDE8F08736
:10209000F8B505460E4617461C46002074B117F8E1
:1020A000011BB068A847B06030B1F06A401CF06214
:1020B0000020641EF3D1F2BD4FF0FF30F2BD0000EE
:1020C0007072696E74665F733A20256E206469735E
:1020D000616C6C6F776564007072696E74663A202B
:1020E00062616420256E20617267756D656E740093
:1020F0007072696E74665F733A2062616420257342
:1021000020617267756D656E740000007072696E93
:1021100074665F733A2062616420256C732061727B
:1021200067756D656E74000000000000000000001F
:102130006E616E004E414E00696E6600494E46006B
:10214000300030B4002513E050F8042BD30744BF0F
:10215000A9F101039A18091F042942F8045BFAD275
:1021600013468C0744BF15809B1CC90748BF1D70D0
:1021700050F8041B0029E7D130BC7047613807E0F4
:1021800005E0A0F161011A2901D201207047413810
:102190001A288041C00F7047A0F10901052901D319
:1021A000202801D10120704700207047A0F1410193
:1021B0001A2938BF203070471B48704770B45368E5
:1021C000D418042B09DA41B1057804F8015B10F842
:1021D000016B16B15B1C491EF3E7536070BC70477E
:1021E00038B514461D4661B1FFF7E8FF61686A6BB8
:1021F000204690476FF00102811A02D0491E01D09B
:1022000001E003E005E00021616032BD6FF00100F4
:1022100032BD4FF0FF3032BDDA6B1047024BDFE7C3
:10222000014BF9E701487047740000203C00002092
:102230000278C9B28A421AB11CBF10F8012FF9E71F
:1022400018BF00207047B1F5807F02D34FF0FF30F8
:1022500070470170012070470078401E8041C043E4
:10226000C00F704780B500B906A005490B681BB1C7
:1022700022220021984701E0FEF746FF222002BDFE
:1022800078080020636F6E73747261696E742068E1
:10229000616E646C65723A20626164206D6573736F
:1022A0006167650000F10103810704D010F8011B8C
:1022B000820781B1FAD10268A2F10131914311F094
:1022C000803104BF50F8042FF6E709BAB1FA81F162
:1022D00000EBD100401CC01A70478268521C82601B
:1022E000426832B10268531C036011704168491E94
:1022F00041607047C9B2830706D0521E22D310F83E
:10230000013B9942F7D11FE0083A13D302F10402CE
:1023100041EA012141EA014150F8043B121F21BF6B
:102320004B40A3F1013C2CEA030C1CF0803FF3D09E
:10233000C9B2001F083210F8013B521E28BF91EAB3
:10234000030FF8D818BF0120401E704780B5FFF773
:1023500033FF006C02BD000062B38B0708D0521E31
:1023600011F8013B00F8013B00F024808B07F6D107
:10237000830740F0208000BF103A07D330B4B1E8A3
:102380003810103AA0E83810F9D230BC530724BFF7
:10239000B1E80810A0E8081044BF51F8043B40F829
:1023A000043BD20724BF31F8022B20F8022B44BF94
:1023B0000B7803707047121F17D35B0009D151F8D7
:1023C000043B20F8023B1B0C121F20F8023BF6D204
:1023D0000BE051F8043B00F8013B1B0A20F8023BDC
:1023E0001B0C121F00F8013BF3D238BF121D521E06
:1023F00024BF11F8013B00F8013BF8D870470000FA
:10240000BBBBE1B1B2F5803F80F07E80022A1ED9CD
:102410008C46B1FBF2F102FB11C31B0443EA1043EB
:10242000B3FBF2FC02FB1C3380B240EA0343B3FB74
:10243000F2F002FB103240EA0C4000237047022AFF
:1024400005D98446B0FBF2F002FB10C270474AB1D6
:1024500005D100F0010249085FEA30007047002210
:102460000023704700F0A4BC0B00020000210020F4
:102470007047904271EB030CF6D3B3F5803F2FD237
:10248000F0B5B3FA83F7B1FA81F4A7F10F0E3D1B53
:102490005340CEF1200602FA0EF2F3415340B5F15B
:1024A0000F0746D80F3C2C444140C4F12006A04001
:1024B000F1414140B1FBF3F603FB1611A2FB0645C7
:1024C000001BA94102D2761E8018594180EA010200
:1024D00021FA0EF362FA0EF200215A403046F0BDA6
:1024E00030B4B1FBF3FC03FB1C11A2FB0C45001B39
:1024F000A94103D2ACF1010C8018594130BC02460D
:102500000B46604600217047B2F1807F65D3F0B57D
:10251000B2FA82F7B1FA81F4C7F10F063D1B22FA35
:1025200006F307F1110EF24120355A40B5F10F07BD
:10253000B8D94140C4F12006A040F1414140B1FB6F
:10254000F3FC03FB1C11A2FB0C45001BA94103D2A9
:10255000BCF1010C801859410F2F12D30F3FC90352
:1025600041EA5041B1FBF3F603FB1611A2FB06450D
:10257000D4EBC030A94102D2761E8018594146EAF8
:10258000CC3C07B34140C7F12006B840F14141407F
:10259000B1FBF3F603FB1611A2FB0645001BA94194
:1025A00002D2761E8018594180EA010221FA0EF308
:1025B000C7F1200462FA0EF20CFA07F05A402CFA26
:1025C00004F13043F0BD80EA010221FA0EF300214C
:1025D00062FA0EF260465A40F0BD8C46B1FBF2F151
:1025E00002FB11C31B0243EA1063B3FBF2FC02FBC4
:1025F0001C331B024CEA002043EA1063B3FBF2FCDD
:1026000002FB1C331B024CEA002043EA1063B3FBBD
:10261000F2FC02FB1C331B024CEA002043EA10636D
:10262000B3FBF2FC02FB1C324CEA00200023704793
:10263000B0B581EA030C0CF0004C40F2FF7515EACE
:1026400011541DBF15EA1357AC42AF4239E0E419EB
:1026500023EA455343F48013C90241F0004141EAA3
:10266000505EC7021100A7FB020200284FF00000D5
:10267000EEFB01204FF00001E3FB072118BF42F001
:102680000102401800214941E3FB0E01A4F58064DA
:102690000F0302D252004041494154F101046CDD64
:1026A000470872F1004250F1000051EB0451A1F5CE
:1026B00080115CBF41EA0C01B0BD4CEA055100201D
:1026C000B0BD05EA1357AC4214BFAF4241E050EA37
:1026D000410E1CBF52EA430E02E061460020B0BD2D
:1026E00024423C441BD15FEA070EF6D0090302BF27
:1026F00001460020AEF1140EB1FA81F7AEEB0704EB
:1027000001FA07FE0C37C7F1200100FA07F7C840AD
:102710004EEA000E23EA455343F48013A2E733F058
:102720000043B3FA83F704BFB2FA82FE77440B3F4B
:10273000E41BB7F1200E2FBF02FA0EF3BB40C7F126
:10274000200E22FA0EFE38BF43EA0E03BA40641C84
:1027500082E750EA410E14BF52EA430E6FF00001C7
:102760004FF4001717EB430F8ABF194617EB410FC1
:10277000B5E74CEA05510020B0BDD4F10104B4F135
:1027800020070FDAC4F12007520828BF42F00102E7
:1027900010FA07F501FA07F7E1BF2A43E040384392
:1027A000E1400FE0352C98DCC7F1200452EA4002EA
:1027B00020FA07F218BF42F0010231FA07F0A140F7
:1027C0000A43002172F1004250F1000051EB0C016C
:1027D000B0BD000010B5144600F002F8226010BD34
:1027E000C1F30A5343B14A0012F5001F28D2A3F2E5
:1027F000FE32A1EB0251704750EA410C20D001F0AB
:10280000004C31EA0C01B1FA81F204BFB0FA80F356
:10281000D2180B3AB2F120032CBF00FA03F1914019
:1028200041EA0C013EBFC2F1200C20FA0CF319431F
:102830009040524240F2FD33D21A01EB03517047EF
:10284000002270474FF4001C1CEB410F94BF1CEB9F
:10285000430F09E041EA030C50EA4C0C52EA0C0C1D
:1028600003D2994208BF9042704714BF8B42824204
:10287000704700004FF4001C1CEB410F94BF1CEB91
:10288000430F09E041EA030C50EA4C0C52EA0C0CED
:1028900003D28B4208BF8242704714BF99429042D4
:1028A00070470000124254D440F2FF7C1CEA1153DE
:1028B0000FD0634531D09B1863453CBF01EB0251FB
:1028C000704701F0004141EA0C510020AFF3008055
:1028D000704750EA410320D001F0004C91EA0C010E
:1028E0001CD0B1FA81F30B3B9A420DD9D21A994010
:1028F00051EA0C01C3F1200C20FA0CFC6144984011
:10290000531C40F2FF7CD7E7914041EA0C01C2F131
:10291000200C20FA0CF3194390407047B0FA80F372
:102920001533202BE0D3202AEED3203A203B9A42C5
:1029300009D9D21A00FA03F141EA0C010020531C14
:1029400040F2FF7CB8E700FA02F141EA0C010020F6
:102950007047524240F2FF7C1CEA11530DD0634590
:10296000DBD0B2EB030C3CBFA1EB025170470CF182
:10297000010221EA035141F4801150EA410CCCD00C
:1029800001F0004C352A27DC30B481EA0C01B2F1A9
:10299000200309DAC2F12003044601FA03F5D0400E
:1029A0002843D1409C400CE0C3F12002450020FAAE
:1029B00003F418BF44F0010421FA03F091400C43E2
:1029C000002174F1004550F1000051EB0C0124424C
:1029D00030BC7FF47BAF70476146002076E7000093
:1029E000C1F30A5340F2FE329B1A14DDD3F12003E7
:1029F0004FEAE17208DDC90241EA505141F000405E
:102A0000D84080185040704703F2E13010B1D243F3
:102A100082F000407047002070470000C11768B185
:102A20004840401AB0FA80F29040D21CC907C2F563
:102A3000846241EA025202EBD02140057047000057
:102A400070B44FF0004591EA030F40F1BB816B4039
:102A5000841A71EB030603D2001BB14112197341B2
:102A60004FF4001C1CEB410F34BF7CEB430442E0ED
:102A70000C0DA4EB1356352E4FDC45EAC323DB0ABD
:102A800045EAC121C912B6F120050DDD63FA05F64C
:102A9000EB4086EA0305124218BF45F00105C01855
:102AA00051F100010CD213E062FA06F5F2405540F4
:102AB000F3415A40B340F3405A408018594107D37C
:102AC00049085FEA30005FEA350528BF45F0010597
:102AD00001F58011420875F1004250F1000041EB10
:102AE00004514E0016F5001F70BC38BF704700201F
:102AF000090D090570471CEB410F10D252EA43063D
:102B00000BD0BCEB410F05D80C0DAB43661E342E29
:102B1000B6DD02E0AB438018594170BC704770BC11
:102B200070470000F0B540F2FF7581EA030C0CF02D
:102B3000004C15EA11541DBF15EA1357AC42AF42C1
:102B4000E5E0BC41C1F31301C3F31303801A9941BB
:102B500043F4801304D2641E400049418018594157
:102B6000C90241EA5051B1FBF3F603FB1611A2FB77
:102B70000675D7EBC020A94102D2761E80185941B4
:102B8000C90241EA5051B1FBF3FE03FB1E11A2FB47
:102B90000E75D7EBC020A94103D2AEF1010E80180B
:102BA0005941890241EA9051760546EA8E2EB1FBE1
:102BB000F3F603FB1611A2FB0675D7EB8020A941A3
:102BC00002D2761E80185941C90241EA50514EEA9C
:102BD000060EB1FBF3F603FB1611A2FB0675D7EB4D
:102BE000C020A94102D2761E80185941C90241EA8B
:102BF0005051B1FBF3F703FB1711A2FB0735D3EBE1
:102C0000C020A94167F100070CBF004247F001074F
:102C100066F3D5274FEA1E31B80814F5806412DD3B
:102C2000BD0775F1004250EB0E5051EB045111F508
:102C3000801F5CBF41EA0C01F0BD4CF07F6141F0A8
:102C4000E0410020F0BDBD076D0840EA0E5041F4A0
:102C50008011D4F10104B4F120060ADAC4F120068F
:102C60000200E04001FA06F3E1401843B240154388
:102C70000EE0342C13DCC6F1200445EA40056D0853
:102C800020FA06F2154321FA06F0A1400D43002177
:102C900075F1004250F1000051EB0C01F0BD002035
:102CA0005FEA0C01F0BDCFB992185B41B3FA83F72C
:102CB00004BFB2FA82F6BF190B3FB7F120062FBF4F
:102CC00002FA06F3BB40C7F1200622FA06F638BF27
:102CD0003343BA401CB1E419641E33E77F4231F03C
:102CE0000041B1FA81F404BFB0FA80F6A4190B3C9C
:102CF000B4F120062FBF00FA06F1A140C4F120066E
:102D000020FA06F638BF3143A0403C1B1AE7AC421C
:102D10001ABF05EA1357AF4212E050EA41061CBF42
:102D200052EA4306BFE750EA4107304661461CBFFE
:102D300041EA0551F0BD52EA430C08BFC143F0BD62
:102D400000204FF4001616EB410F98BF16EB430F0F
:102D500008BF16EB410F24BFC14305E016EB430F3C
:102D60000CBF61464CEA0551F0BD0000400D49180A
:102D700040EA81200CD2490DA1F58061491C40F048
:102D8000004005DBD1F11F0154BFC840C017704798
:102D900000207047014648B1B0FA80F18840C91C54
:102DA000C1F58461090501EBD021400570470000A1
:102DB0007047000070B44FF0004591EA030F7FF5B3
:102DC00047AE6B40841A71EB030604D26E40001BC1
:102DD000B141121973414FF4001C1CEB410F34BF79
:102DE0007CEB430683E00C0DA4EB1356362E00F368
:102DF0007C80012E45EAC32341DC43EA525312BFD3
:102E0000D20292025B08240545EAC12141EA5051F1
:102E1000D2EBC020994125D407D1B0FA80F610FA40
:102E200006F162D00020203608E0B1FA81F6B14008
:102E3000C6F1200220FA02F21143B0404FEAF474C6
:102E4000B4EB465434F001064FEA74040AD8D6F5C0
:102E50000016760D04F00044F04061FA06F250408E
:102E6000F1404840C00A40EA415021F0004128BFEB
:102E70005FEA500550F1000044EBD12135E0DB0A58
:102E800045EAC121C90AB6F120050EDD42EA024237
:102E9000120CC5F1200603FA06F6EB4042EA0605DD
:102EA0006D42984161F100010DE062FA06F5F240D1
:102EB000554063FA06FC82EA0C02F3405A406D4228
:102EC000904161EB030111F4801F05D1641E62057E
:102ED00002D06D004041494121F48011430875F151
:102EE000004350F1000041EB045170BC70471CEBF3
:102EF000410F15D223F0004352EA43060BD04FEAAC
:102F00004C0CBCEB410F04D80C0D661E342EB7DD03
:102F1000EBE7801A994150EA410608BF0021E4E737
:102F200008BF1CEB430F28BF6FF00001DDE7000076
:102F300080B50FF2B46000F084FEBDE8014000F0FF
:102F400071BF0FF2B86000F07CBE0FF2BC6000F001
:102F500078BE012080F31388BFF34F8FDFF8081687
:102F6000DFF808060A6802F4E06202430A60BFF371
:102F70004F8F00BFFDE700002DE9FE43DFF8F0852D
:102F8000DFF8F095DFF8F045DFF8F055DFF8F06591
:102F9000DFF8F0759FEDA00A88ED000ADFED9F0ACB
:102FA000C9ED000A9FED9E1A84ED001ADFED9D1A0F
:102FB000C5ED001A052030601221DFF8CC053980FC
:102FC000012202604260DFF8C405DFF8C415DFF8B3
:102FD000C42580ED000A01614261B7EE000AC0ED30
:102FE000010A80ED021AC0ED031A80ED060A80ED99
:102FF000070A00F043FFD9F8000001F03DF8CDE9E1
:103000000001D8F8000001F037F802460B460FF235
:103010000C6000F016FE286801F02EF800F0B4F9FC
:1030200002460B460FF22C6000F00BFE31680FF2E7
:103030005C6000F006FE39880FF2686003B0BDE8FE
:10304000F04300F0FEBD80B5486801F0C5F8DFF838
:10305000481548600128BDE802400CBF0FF25C60D3
:103060000FF2646000F0EDBD80B5486801F0B4F87F
:10307000012805D10FF2606000F0E3FD012004E0BB
:103080000FF2646000F0DDFD0020DFF80C158860B1
:1030900001BD80B5486801F09FF8012805D10FF205
:1030A0005C6000F0CEFD012004E00FF25C6000F0F7
:1030B000C8FD0020DFF8E014086001BD7CB50C46B7
:1030C000DFF8AC546068DFF8AC6401F0B6F800F0EB
:1030D000ABF800F039F800F0A7F830602968DFF8A5
:1030E000AC0401603268426000F0C8FE306800F055
:1030F000C3FF00F02DF802460B460FF21C6020E0E3
:103100007CB50C46DFF870546068DFF8706401F03D
:1031100094F800F089F800F017F800F085F83060B6
:103120002968DFF8680481603268C26000F0A6FE9A
:10313000306800F0A1FF00F00BF802460B460FF2DA
:10314000106000F07EFD73BD2860A06801F075B8C6
:10315000CDE90001286800F08FBF10B54868DFF89E
:10316000244401F06AF851EC100BFFF739FC208081
:103170002188DFF8180400EE101AB8EE400A80ED3E
:10318000050A00F07BFE21880FF2FC5014E010B518
:103190004868DFF8EC4301F01FF800EE100A84EDF8
:1031A000000AB8EEC00ADFF8E40380ED040A00F07C
:1031B00065FE21680FF2E850BDE8104000F041BD07
:1031C00038B50C4684B06068DFF8D05301F035F8AC
:1031D00000F02AF8FFF7B8FF00F026F86860E06812
:1031E00001F02BF800F020F8A86095ED020A01F03C
:1031F00087F985ED040A00F097F8CDE902016868C7
:1032000000F03AFFFFF7A4FF02460B460FF2A8506A
:1032100000F017FD05B030BD0000A6420080A243BB
:10322000CD3E873FE9D5843F51EC100B01F0B0B99A
:1032300038B50C462DED028BA068D84D00F0FDFF8F
:10324000FFF7F2FF08EE100A0FF2905000F0F9FCC1
:10325000606800F0C1FF0128DFED838A11D195ED90
:10326000000A00F05AF805D500F050F8A8BF0FF298
:10327000805045DA00F058F802460B460FF28450B1
:1032800036E0606800F0A8FF022811D195ED010A30
:1032900000F043F805D500F039F8A8BF0FF27450DC
:1032A0002EDA00F041F802460B460FF27C501FE088
:1032B000606800F091FF032820D195ED040A30EEFC
:1032C000480ADFED6A0AB4EE600AF1EE10FA09D599
:1032D0009FEDA31AB4EE410AF1EE10FAA8BF0FF267
:1032E00058500DDA00F020F802460B460FF26050FD
:1032F000BDEC028BBDE8324000F0A3BC0FF264507D
:10330000BDEC028BBDE8324000F09BBCF8EE000A39
:10331000B4EE600AF1EE10FA704730EE480AB4EEEF
:10332000680AF1EE10FA704710EE100A00F0A4BE21
:103330001CB590488E4C006800F09EFE00F024F80A
:1033400002460B460FF2405000F07BFC8B480068B1
:1033500000F092FECDE900018749086800F08CFE7C
:1033600002460B460FF25C5000F06BFC844801688B
:103370000FF2183000F065FC824801880FF224300B
:10338000BDE81C4000F05DBCCDE90001206800F004
:1033900073BE70B540F2DC5001F02EF90025142404
:1033A0007F4E00F043F800F047F8C8BF6D1CB5EE43
:1033B000400AF1EE10FA48BF6D1E641EF1D1724949
:1033C000002D54BF01204FF0FF30086091ED000A3E
:1033D0006E48B8EEC00A80ED060A23E070B540F2F0
:1033E000DC5001F009F9002514246D4E00F01EF8A0
:1033F00000F022F8C8BF6D1CB5EE400AF1EE10FADD
:1034000048BF6D1E641EF1D15F49002D54BF0120DD
:103410004FF0FF30486091ED010A5C48B8EEC00AF9
:1034200080ED070ABDE8704000F028BD0020306044
:10343000322001F0E1B80000306847F23051884294
:1034400008D396ED000AB8EE400ADFED460A30EEEA
:10345000200A03E096ED001AB8EE410AB5EE400AE4
:10346000F1EE10FA70470000010000400BD7A33CBA
:1034700038B50FF270414B4A0FF27C440FF2E85519
:10348000084600F0B5FB484A0FF26040214600F0C4
:10349000AFFB464A0FF274410FF2684000F0A8FB00
:1034A000434A0FF280410FF2744000F0A1FB414A01
:1034B0000FF288410FF27C4000F09AFB3E4A0FF277
:1034C000A4410FF2984000F093FB3C4A0FF2BC413C
:1034D0000FF2B04000F08CFB394A0FF2DC410FF2E2
:1034E000D04000F085FB374A0FF2E4410FF2D440A0
:1034F00000F07EFB344A0FF200510FF2F04000F072
:1035000077FB324A0FF218510FF2085000F070FBAF
:103510002F4A0FF230510FF2205000F069FB2D4A74
:103520000FF23C50294600F063FB2B4A0FF240504B
:10353000214600F05DFB294A0FF24050294600F079
:1035400057FB274A0FF23C50214600F051FB294619
:10355000BDE83840234A0FF2385000F049BB000064
:103560000AD7A3BC000080C70CED00E00400FA05F8
:103570000000002004000020080000200C000020B3
:1035800028000020BC000020A4070020080600201E
:103590000000A04000009041B407002090070020E8
:1035A00024080040432F0008312F00084B2F00084B
:1035B000532F0008792F00084730000869300008B1
:1035C00093300008BD300008013100085B3100086D
:1035D0008F310008C1310008313200083133000852
:1035E00093330008DD3300080D0A63616E207365B4
:1035F0006E6420746573740D0A0000000D0A48455E
:103600004C4C4F210D0A00000D0A564553494F4EB0
:1036100020312E3020210D0A0000000043656E7419
:1036200065725F44697374616E6365203A206B78DC
:103630005F63656E746572203D20256620206B797E
:103640005F63656E746572203D2025662020202012
:103650000D0A0000576865656C5F4469616D6574AB
:103660006572203A20585F6469616D6574657220E7
:103670003D2566202020795F6469616D65746572FF
:10368000203D25662020200D0A00000053616D704A
:103690006C696E675F54696D65203A20256420204F
:1036A000200D0A0043414E53454E5F4944203A20C5
:1036B000307825782020200D0A00000072656164B2
:1036C000204F4B0D0A000000726561642053746F37
:1036D0007065640D0A000000656E636F646572209A
:1036E0004F4B0D0A00000000656E636F6465722029
:1036F00053746F7065640D0A000000000D0A776155
:103700007665204F4B0D0A000D0A776176652053D0
:10371000746F7065640D0A000D0A43656E746572FE
:1037200020706F736974696F6E3A206B785F6365A0
:103730006E746572203D20256620206B795F63657D
:103740006E746572203D20256620200D0A00000061
:103750000D0A576865656C206469616D65746572F2
:103760003A20585F6469616D65746572203D20255B
:10377000662020795F6469616D65746572203D2003
:10378000256620200D0A00000D0A43414E53454E88
:103790005F4944203A20307825782020200D0A0007
:1037A0000D0A53616D706C696E672074696D65EF09
:1037B000BC9A25640D0A00000D0A4E6F773A7820F6
:1037C0003D202566202079203D20256620616E67FA
:1037D0006C653D2566200D0A00000000737461725F
:1037E0007420636865636B20646174610D0A000076
:1037F0000D0A58207661756C65206973206F6B2106
:103800000D0A00000D0A58206572726F72203A2569
:10381000660D0A000D0A59207661756C6520697382
:10382000206F6B210D0A00000D0A59206572726F1E
:1038300072203A25660D0A000D0A416E676C6520FC
:103840007661756C65206973206F6B210D0A00002D
:103850000D0A416E676C65206572726F7220256675
:103860000D0A00000D0A706C6561736520696E7049
:10387000757420636865636B20312F322F332064A9
:103880006174610D0A0000000D0A43656E74657273
:103890005F44697374616E6365203A206B785F637F
:1038A000656E746572203D20256620206B795F630C
:1038B000656E746572203D202566202020200D0A4B
:1038C00000000000576865656C5F4469616D657450
:1038D0006572203A20256620202025662020200DB4
:1038E0000A00000068656C6C6F00000063616E5F29
:1038F0007465737400000000746573742063616EF6
:103900000000000076657273696F6E0063757272F5
:10391000656E742076657273696F6E00726573658B
:103920007400000072657365742073797374656D3B
:103930000000000064656661756C74006765742042
:10394000706172616D6574657273206261636B2072
:10395000746F2064656661756C74000072656164E3
:103960000000000072656164203120746F20737460
:10397000617274207265616420706F736974696F1D
:103980006E000000656E636F64657200656E636F44
:10399000646572203120746F2073746172742072B8
:1039A00065616420656E636F6465722000000000CD
:1039B000776176650000000073686F772077617625
:1039C000650000006D6F646966795F430000000068
:1039D0006D6F64696679207468652063656E7465CF
:1039E0007220706F736974696F6E00006D6F646927
:1039F00066795F44000000006D6F64696679207429
:103A0000686520776865656C206469616D657465BB
:103A1000720000006D6F646966795F4944000000C0
:103A20006D6F64696679207468652043414E534523
:103A30004E5F4944000000006D6F646966795F74F1
:103A4000696D65006D6F64696679207468652073BF
:103A5000616D706C696E672074696D6500000000AF
:103A6000736574706F7300006A75737400000000F2
:103A7000636865636B706F730000000073686F7735
:103A800070726100656E636F64657258646972007C
:103A9000656E636F646572596469720010B50146A2
:103AA000894C20464022FEF767FC632204F1440162
:103AB000204600F02CFE00F007F82068C16841F0B5
:103AC0001001C16010BD000010B5804C206830B9F5
:103AD00000227F490FF2052001F0DDF82060BDE8EB
:103AE00010400FF2F10200BF0FF21C2184A07FE012
:103AF0001CB5784C04F168026946204600F03EF897
:103B0000009804F1680100F04FF86221204601F0AE
:103B1000D3F90020606613BD38B56B4C026821688C
:103B20008A4229D1002300931568009553680093B9
:103B300000991368526800F033FE04F1440004F168
:103B4000A70210F8011B09B99042FAD3614D411E3A
:103B5000284601F0B5F9287808B1012121646221D5
:103B600004F1440001F0A8F904F144012046BDE845
:103B70003840632200F0CBBD31BD0000F8B50C46E3
:103B80005DA61546314601F0C1F9002748B10D2F59
:103B900007DA45F827003146002001F0B7F97F1C0D
:103BA000F4E727600020F2BD38B50D46474A296882
:103BB0000446106801F0DCF8020005D012682946BE
:103BC00020469047002032BD53A000F03AF8012073
:103BD00032BD000080B500BF53A000F032F83B4872
:103BE0000FF209110068BDE80840002201F0F0B8AA
:103BF0002DE9F8430446894616460820FDF726F9C4
:103C000007462046FEF74EFB401CFDF71FF9804695
:103C10004846FEF747FB401CFDF718F905462146CC
:103C2000404601F04DF94946284601F049F93A4627
:103C300041463E607D6025480068BDE8F84301F0DC
:103C40004BB80EB478B5204C024604F1A80605AB7B
:103C50006521304601F080F904F1300520216972B8
:103C600082B23146204600F016FD10B10A2000F065
:103C7000C3FC286890F835100129FAD171BC5DF8B1
:103C800010FB00B514490D202DED040A087581B014
:103C90000A224A7501A80A1D0368136002A801F1EF
:103CA00008020368136003A801F10C0203681360A3
:103CB00004A801F11002036803481360162200F003
:103CC000EAFC05B000BD0000980200206C0800204E
:103CD000774C0008680400201000002080B501F037
:103CE00059F900B10120C0B202BD000009684A685C
:103CF0004FEA00010EA0A4E72C200D0A00000000EE
:103D000068656C700000000073686F7720636D64F5
:103D10002075736167650000636D64206E6F7420A9
:103D200066696E640D0A000068656C703A0D0A00E1
:103D300025733A2025730D0A0000000058B501468E
:103D4000434C8AB020462822FEF716FB012107913A
:103D500008910E2200260992059606960096019675
:103D60000296039604966946204601F0B0F908B120
:103D700001F03AFD204601F013FA08B101F034FDDC
:103D80000221204601F031FB08B101F02DFD042194
:103D9000204601F02AFB08B101F026FD08202D4C39
:103DA0002061E660A6602675606D38B900220FF2CA
:103DB000AD010FF2AD0000F06EFF606501F036FD61
:103DC0000BB050BD38B504460D460420FDF73EF853
:103DD000204B04600146586D2A46BDE8384000F08B
:103DE0007BBF10B51B4C606D04F1500100F0C0FFAB
:103DF000010004D004F12800BDE81040084710BDC0
:103E000010B5144C04F1180304F13402002101F040
:103E100070FA606B94ED060B206584ED0A0B0120AF
:103E2000206310BD10B50B4C01202062AD21206035
:103E3000616200BF0EA0FFF704FF04F1580304F114
:103E400020022146BDE81040014801F0E7B900001A
:103E5000EC07002000050020704700000068704754
:103E600000680968884201D100207047012070472E
:103E700073656E6420646174610D0A0070B586B06C
:103E800001F01BFD002001905A4C204600F076F80E
:103E900001210390049100220592694601A801F0D6
:103EA000C3FD28B166A0FFF7CCFE01F016FD12E0BD
:103EB0000025514E56F82520002304EB85010220F1
:103EC00001F0C4FC6D1C122DF4DB01F006FD00BFF7
:103ED00060A0FFF7B6FE06B070BD0000F8B5002781
:103EE0005FA4454D434E06EB870090ED000A05EBBD
:103EF000870080ED000A10EE100A00F0BDF80246BF
:103F00000B4639462046FFF79CFE55F8271049001E
:103F10000816401C03D1090218BF45F827007F1C72
:103F2000122FE0DB32A0FFF78CFE344829680160D5
:103F30006A6833480260A968324A1160E868324909
:103F4000324A086095ED040A3148BDEEC00A80EDA2
:103F5000000AD5ED050A2F48FDEEE00A10EE901A92
:103F6000118095ED060ABDEEC00A80ED000AD5ED80
:103F7000070AFDEEE00AC0ED010AF1BD26498842BC
:103F800001D2002070472549884201D201207047A4
:103F90002349884201D2022070472249884201D237
:103FA000032070472049884201D2042070471F49EE
:103FB000884201D2052070471D49884201D206205F
:103FC00070471C49884201D207207047094988423E
:103FD00001D2082070471849884201D20920704751
:103FE0001649884201D20A2070470B207047000012
:103FF0000D0A000000000A0808060020000000204A
:1040000004000020080000200C000020BC0000205C
:1040100028000020A40700200040000800800008BD
:1040200000C00008000001080000020800000408A9
:10403000000006080000080800000C0800000E0838
:10404000657261736520666C617368206661696C76
:10405000210D0A005772697465204F4B210D0A002B
:10406000666C6173685F646174615B25645D3D25A6
:104070006C660D0A00000000C0F3C75181B1FF2932
:1040800006D0C110400721F0E04101F160517047B6
:1040900041020CBF40F4E0016FF000410020704786
:1040A00000F0004100020AD0B0FA80FC00FA0CF0E7
:1040B00001F16051A1EB0C5101EBD021400570479B
:1040C0002DE9FC4F83B00E4617460BB100221A6053
:1040D0008046444600E0641C207801F053FD00282F
:1040E000F9D120782D2816BF2B2814F801BB4FF0EA
:1040F0002B0B002F019603D4012F01D0252F04DBB9
:10410000002E47D0C6F8008044E0002F0ADD102FB3
:1041100004BF2078302802BF607840F02000782863
:104120000ED10AE02078302818BF0A2708D160781D
:1041300040F02000782802D11027A41C00E00827B6
:10414000029400E0641C20783028FBD04FF0000976
:1041500024A02646CA468DF8000007E09DF80050CE
:10416000451BCA46EDB207FB0959641C207801F0D3
:1041700013FD00BF1BA301463A461846FEF7BAF8E6
:104180000028EBD10299A142484605D1019808B117
:10419000C0F8008000201CE01CA2A61BD15D761A8E
:1041A000002E0FD405DC451B03D3B5FBF7F15145B9
:1041B00008D0AFF30080049808B1012101604FF0EE
:1041C000FF3003E0BBF12D0F08BF4042019901B160
:1041D0000C6005B0BDE8F08FFFE700230A22002144
:1041E0006EE70000303132333435363738396162AA
:1041F000636465666768696A6B6C6D6E6F70717217
:10420000737475767778797A0000000000002115C4
:10421000110E0D0C0B0B0A0A0909090909080808F7
:10422000080808080707070707070707070707071A
:104230000700000041EC100B01BD80B501F04EFFFE
:10424000F8E780B551EC100B02F094F9F2E780B575
:1042500051EC100B02F090F9ECE7000080B52DED69
:10426000068B00F051F800F047F800F041F800F03C
:1042700037F800F03DF800F02BF828EEA00A09EE20
:10428000690A21EE291A01EE080A61EEA00A00EE81
:10429000C80A1AE080B52DED068B00F035F800F065
:1042A0002BF800F025F800F01BF800F021F800F0E2
:1042B0000FF829EE200A08EEA90A61EE200A00EEA6
:1042C000C80A61EEA91A01EEC80ABDEC068B01BD51
:1042D00000EE900AA94890ED011AD0ED001A70473F
:1042E00009EE900AB0EE4A0AF0EE6A0AFFF7A9BF9B
:1042F00051EC100B00F04CB941EC1A0BB0EE4A0A2D
:10430000F0EE6A0AFFF7A3BFB0EE608AF0EE418AD2
:10431000B0EE619A10EE100AFFF7AEBE38B58849CC
:104320002DED0C8B0A6847F23050824204D391ED98
:10433000000A00F0CFF803E091ED001AB8EE410A50
:10434000804C814A84ED020A1368834204D392EDC3
:10435000000A00F0BFF803E092ED001AB8EE410A3F
:1043600084ED030A0020106008609FED789B94EDB7
:1043700000CA94ED020A774DB8EECCCA00F0B1F84D
:1043800053EC192BFEF754F99FED73AB00F09DF839
:104390009FED738B53EC182BFEF74AF900F0F8F8F9
:1043A00000EE100A95ED00BA94ED01CA60EE0BBA6A
:1043B000B8EECCCA94ED030A6B4C00F092F853ECC3
:1043C000192BFEF735F900F080F853EC182BFEF7A7
:1043D0002FF900F0DDF800EE100AD5ED010AD4ED5A
:1043E00002CA94ED032A20EE20CAF0EE4C1AB0EE79
:1043F0006B1A3CEEC22AF0EE419AB0EE61BA12EEB0
:10440000100AFFF739FE00F060F800F05AF800F0EB
:10441000BFF800EE900AF0EE4B1AB0EE691AB0EE5B
:10442000608AF0EE418AB0EE619A1CEE900AFFF7C6
:1044300023FE00F04AF800F044F800F0A9F800F07C
:1044400056F8FFF70BFFF0EE40CA94ED02DA94ED58
:10445000030A3DEE400A00F046F800F036F800F09E
:1044600030F800F095F800EE900AB0EE608A1DEE8C
:10447000100AFFF701FE00F028F800F022F800F023
:1044800087F800F034F8FFF705FFD4ED000A94ED4B
:10449000011AA0683A4970EEAC0A31EE000AC4ED88
:1044A000000A84ED010AE06091ED000AB1EE400AD5
:1044B00084ED020A00F024F884ED040ABDEC0C8BB4
:1044C00031BD00222F4BFEF72DBB53EC1A2BFEF70C
:1044D000AFB80000B8EE400ADFED2B0A30EE200A3C
:1044E00070472CEE000A10EE100AFFF7C5BD00EE73
:1044F000100AF0EE491AB0EE681AF0EE480A70475A
:104500000EE0DFED1A0A30EE200A9FED191AB4EE24
:10451000410AF1EE10FA44BFDFED160A30EE200A30
:104520009FED151AB4EE410AF1EE10FAE9DADFED6B
:10453000170AB4EE600AF1EE10FAE6D470470000F4
:1045400024080040A40700202404004000000000CC
:10455000004049400800002044174154FB21094015
:10456000000000000000403F900700200000B4C39E
:10457000FFFF33C30000B4430100344300000020B8
:104580007008002000806640000080C7000034C32F
:1045900001F000428B1AA3F16051B1F5801F0ADBD4
:1045A000B1F17F6F1FD242EAC102C10071F1004137
:1045B00042EB507070470B15C3F10903212B10D249
:1045C000890241EA905180020128494141F00041AD
:1045D00021FA03F0C3F12003994071F100415041E9
:1045E0007047100070476FF0000013EB103F5CBF86
:1045F000000E42EAC050704738B5044601F0BEFFD5
:1046000014F1010F054602D004480178641801F046
:10461000B5FF401BA042FAD331BD00BF2C000020E3
:1046200038B5040001D1012032BD00F021F808B9ED
:1046300000F022F800F012F800F023F8FFE74161E3
:1046400000F001F832BD2068C16841F40051C1603A
:104650000020686020216970A9707047242068706C
:104660002068C16821F40051C160204600F035BACD
:1046700004F138056878704700212970204601F060
:104680009ABF2068016921F4904101612068416965
:1046900021F02A01704770B5044604F1380513462D
:1046A0006878202831D109B1180001D1012070BDEE
:1046B0002878012829D0012028702162A384E3846E
:1046C0000020686021226A700FF28520226BD0637F
:1046D000226B0FF2A9201064226B0FF2E920D06444
:1046E0000020266B30652068021D206B02F05DF80B
:1046F00021686FF04000086000222A70206841693C
:1047000041F080014161002070BD022070BD7CB588
:10471000044604F138051346A87820283ED109B193
:10472000180001D1012076BD2878012836D001205B
:104730002870A162A38500226A602220A87000264A
:10474000606B0FF24122C263606B0FF27122026450
:10475000606B0FF27122C2640A46606B06652668C0
:10476000606B311D02F021F80020009021680A687A
:10477000009200224B68009300982A70CB6843F4A3
:104780008073CB602068416941F00101416120687C
:10479000416941F040014161002076BD022076BDB3
:1047A00038B5044604F13905206841692A78212A80
:1047B0000CD109060AD5426922F080024261206BC1
:1047C00008B102F028F8204600F021F9206841697C
:1047D0006A78222A0CD149060AD5426922F04002A1
:1047E0004261606B08B102F016F8204600F018F93B
:1047F000002032BD416921F040014161606B70478A
:1048000038B5044625682968EA686B6911F00F001D
:1048100007D188065DD593065BD52046BDE83240BA
:1048200012E1D80702D412F4907F52D0C80705D500
:10483000D50503D5E06B40F00100E063480705D5DE
:10484000DD0703D5E06B40F00200E063880705D583
:10485000DD0703D5E06B40F00400E063080705D5F1
:10486000DB0703D5E06B40F00800E063E06B002855
:104870006CD0880604D5910644BF204600F0E4F8C9
:1048800020684069E16B0A0701D440061BD5204629
:1048900000F0C6F8206841694A060FD5FFF7AAFF65
:1048A00060B10FF299110165606B01F0F8FF00280B
:1048B0004CD0606B016DBDE8344008472046BDE830
:1048C000324002F0FFB8204602F0FCF80020E0631E
:1048D00031BD08062AD5130628D594F839002128B9
:1048E00034D1A068B0F5805F206A0BD10188C1F394
:1048F0000801696020690028206A0CBF811C411CE6
:10490000216203E0411C216200786860E08C401E57
:10491000E08480B2D0B92068C16821F08001C16014
:104920002068C16841F04001C16031BD48060DD525
:1049300051060BD5E86820F04000E860202184F89B
:1049400039102046BDE8324002F0BDB831BD00004C
:10495000816B00680268D30544BF084602F0B3B813
:104960000020C8840868426922F080024261086819
:10497000C16841F04001C16070470000806B02F0E7
:10498000A3B80000816B00680268D30513D400202F
:10499000C8850868C26822F48072C26008684269EB
:1049A0005208520042610868426922F040024261A6
:1049B000202081F83A00084602F087B8806B02F0A8
:1049C00085B8000038B5846B2068406904F139056A
:1049D0002978212906D1010604D50022E284204647
:1049E00000F015F8216848696978222906D1400647
:1049F00004D50021E185204600F012F8E06B40F07C
:104A00001000E0632046BDE8324002F05BB8016868
:104A1000CA6822F0C002CA60202180F839107047AD
:104A20000168CA6822F49072CA6001684A69520833
:104A300052004A61202180F83A107047806B0021B3
:104A4000C185C18402F03EB880B590F83A102229A1
:104A500041D18168B1F5805F12D101690368826A32
:104A60000029596805D1C1F308011180826A911C9F
:104A700004E001F0FF011180826A511C81620FE0A5
:104A800001690029816A04D14A1C826203685A685C
:104A900005E04A1C826203685A6802F07F020A70CD
:104AA000C18D491EC18589B299B90168CA6822F0D1
:104AB0002002CA600168CA6822F48072CA60016874
:104AC0004A69520852004A61202180F83A1001F0E8
:104AD000FCFF002002BD022002BD2DE9F047044684
:104AE000642522681169E06821F440510143116195
:104AF0001926D3684948A168034020690B436169BE
:104B00000343E0690B430343D3605169A06921F477
:104B1000407101435161E36941484249B3F5004F97
:104B20003BD18A4218BF82420ED102F05EF807469E
:104B300002F05BF8804602F058F8814602F055F822
:104B4000824602F052F80DE002F047F8074602F004
:104B500044F8804602F041F8814602F03EF8824671
:104B600002F03BF86168490000F06DF8AE46BCFB0E
:104B7000FEFE05FB1E77FF0032376423B7FBF3F31D
:104B80005B0003F4F87300F04FF8ED003235642059
:104B9000B5FBF0F000F0070039E08A4218BF82420E
:104BA0000ED102F022F8074602F01FF8804602F00C
:104BB0001CF8814602F019F8824602F016F80DE062
:104BC00002F00BF8074602F008F8804602F005F8FC
:104BD000814602F002F8824601F0FFFF6168890019
:104BE00000F031F8AE46BCFBFEFE05FB1E773F0130
:104BF00032376423B7FBF3F303F0F00300F014F84B
:104C00002D0132356420B5FBF0F000F00F00216873
:104C1000C3188B60BDE8F08700000000F369FFFF58
:104C2000001401400010014003EB021306FB0AF7D9
:104C30004643B7FBF1F2B6FBF1F06421B0FBF1F1B2
:104C400005FB112570477743B7FBF1F36422B3FBF3
:104C5000F2F206FB08F3B3FBF1F706FB09F3B3FB33
:104C6000F1FC7047884201D0012070470020704756
:104C700080087047704710B5024641F2055004E0C5
:104C800012F8014B04EB4014201811780029F7D1D9
:104C900020F0004010BD70B504460D461646FC20BD
:104CA000FCF7D4F8210008BF2E4C290008BF2E4D78
:104CB000310008BF2D4EC4600561466100F1180146
:104CC000016000220021036843F82120491C1329B8
:104CD000F9DB4260826070BD2DE9F84305460E465F
:104CE0009046002757A425B9532200F06BF8AFF384
:104CF000008026B9542200F02FF8AFF300802A6913
:104D0000304690471323B0FBF3F903FB19092868D9
:104D100050F8294005E02168EA683046904790B194
:104D2000A468002CF7D10C20FCF790F8040010D0F8
:104D30002660286850F82910A16040F8294068686A
:104D4000401C686000E06768C4F80480A868401CE4
:104D5000A8603846BDE8F283214601A001F08CBF6F
:104D60006B657900654C0008714C0008754C0008B3
:104D700070B505000E4600BF32A404D1762200F0C3
:104D800021F8AFF3008026B97722FFF7E5FFAFF3F4
:104D900000802A693046904713232A68B0FBF3F35A
:104DA000132101FB130052F8204000E0A4683CB13D
:104DB0002168EA68304690470028F7D1606870BDE6
:104DC000002070BD4FEA04012EA001F055BF000085
:104DD0002DE9F84F07000D4691460FF2680805D1FE
:104DE000A322414600F02AF8AFF300803DB9A42287
:104DF0004FEA080126A001F03FFFAFF30080D7F88B
:104E000008A00FF2940B0026386850F826400EE0F8
:104E100020684A46211DA847B868824506D0AA22C4
:104E20004146584601F028FFAFF30080A468002CEB
:104E3000EED1761C132EE7DBBDE8F18F11A001F057
:104E40001BBF0000433A5C55736572735C44454C6C
:104E50004C5C4465736B746F705CE99980E89EBA32
:104E6000E4BBAAE7A1ACE4BBB67370695C4E4557DE
:104E70005F504F535F31395C5372635C6861736894
:104E80002E630000686173685461626C6500000005
:104E90006170706C790000007374616D70203D3D2D
:104EA00020686173685461626C652D3E74696D653C
:104EB0007374616D70000000002201F0EFBE00000D
:104EC0005FEA000C80EA01039B0715D1830706D037
:104ED00011F8013B00F8013BB3B18307F8D10A6830
:104EE000B2F1013323EA020313F0803F02BF40F81E
:104EF000042B51F8042FF3E711F8013B00F8013BB4
:104F000013B111F8013BF9E76046704738B504006A
:104F10000D460BD02946204601F0D9FE04442078E6
:104F200048B90C4800210160002032BD09490C68D5
:104F3000002CEFD132BD2946204601F0D9FE2118C0
:104F4000087810B1002201F8012B024801602046C8
:104F500032BD00BF7408002008B584B0002303935D
:104F600000290EBF01930190491E0291009301A9EF
:104F700004AB074878441830FCF726F9019909B1C9
:104F800000220A70002858BF039805B000BD00BF7A
:104F90004BD3FFFF81EA00039B0717D1820707D09D
:104FA00010F8012B11F8013BBAB19A42F6D014E087
:104FB00002680B689A42A2F1013301BF934313F0D8
:104FC000803F50F8042F51F8043FF3D010F8012B24
:104FD00011F8013B0AB19A42F8D0D01A704700008C
:104FE00038B504001ED094F8200010B9204601F016
:104FF000A6FE2068016821F00201016001F0BEFAFE
:105000000546206841688A074ED501F0B7FA401B73
:105010000B28F6D304E001F0B1FA401B0B2846D36D
:1050200000F0E4F8012032BD016821F08001016048
:10503000607E00F048F80CBF41F0400121F04001D3
:105040000160A07E00F03FF80CBF41F0200121F08C
:1050500020010160E07E00F036F80CBF21F0100165
:1050600041F010010160207F00F02DF80CBF41F0ED
:10507000080121F008010160607F00F024F80CBFF6
:1050800041F0040121F004010160A268E068216997
:10509000024360690A43616802432068491E0A436B
:1050A000C26100216162A9E000F0ADF80546206808
:1050B0004168CA07AFD5217E0129B5D1026842F007
:1050C00080020260B4E70128206801687047F0B5EB
:1050D00090F82020012A18BF022A54D14D4A1068A6
:1050E00040F001001060136823F47C5313601068D3
:1050F0004B6A40EA0320106001200B7D03F01F0380
:1051000000FA03F3D069DC432040D061424800F547
:10511000117500F51076C86958B9D0682040D06084
:10512000CF6800F034F80F68C7EA004C486945F8CA
:1051300030C0C86901280BD1D0681843D0600F680F
:1051400000F025F8CE684F69C6EA004045F8370000
:105150008869002850680CBF2040184350600869D7
:105160000028506907BF0440546118435061086A21
:10517000012802D1D0690343D36100201168490896
:1051800049001160F0BD416A41F48021A8E04868FF
:10519000D1F814C0C0EA074746F83C7088687047E9
:1051A00038B5044694F82000012816D1022184F86D
:1051B00020102068026852085200026001F0DEF9F7
:1051C000054620684168C8070DD501F0D7F9401B96
:1051D0000B28F6D300F00AF803E0606A40F40020E0
:1051E0006062012032BD0020606232BD606A40F41E
:1051F00000306062052184F820107047012084F897
:105200002000002032BD016841F00101016001F081
:10521000B5B900000066004000640040F0B590F8A9
:1052200020400568AD68012C18BF022C55D115F03F
:10523000E05F4ED0C5F30164032C03D3416A41F40F
:1052400000014DE00125A5401D6024010368CE68E2
:1052500003F5C0758B681BB90B6846EA435603E03B
:105260004F6843EAC7031E432E5105680B6905F5D5
:10527000C2763351097D012906D1036803F5C27155
:105280000D5945F480750D519379D17955791B04E9
:1052900043EA0163117943EA0523056825440B437A
:1052A000C5F88C319378D17855781B0443EA0163B3
:1052B0001178026843EA052322440B43C2F888317F
:1052C000006800F5C070015941F001010151002052
:1052D000F0BD416A41F4001102E0416A41F48021CD
:1052E00041620120F0BD416A41F480214162012008
:1052F0007047F0B590F82040012C18BF022C66D101
:105300000029046801D1E56800E0256915F0030F64
:1053100003D1416A41F400115CE00D0104F5D87637
:10532000745914F004049460066806F5D87603D125
:105330007459640D146002E07659F60856600468EA
:1053400004F5D8767759C7F34004D46000F043F8E9
:1053500006F00F06166100F03EF8C6F307249461CC
:1053600000F039F8360C566102682A44D2F8B84188
:105370001C7006682E44D6F8B821120A5A700468C8
:105380002C44D4F8B821120C9A7004682C44D4F838
:10539000B821120EDA7000F023F81A7100F020F82C
:1053A000120A5A7100F01CF8120C9A7100F018F8E9
:1053B000120EDA71006821B9C16841F02001C160A4
:1053C00003E0016941F0200101610020F0BD416A64
:1053D00041F4802184E704682C44D4F8B461704718
:1053E00004682C44D4F8BC21704790F82020012A8E
:1053F00018BF022A03D100684269114300E072E736
:105400004161002070472DE9F84F05464FF0000834
:1054100028684669D0F804B08468D0F80C90D0F8B9
:1054200010A08769F10745D5E20713D501218160F6
:10543000A00703D5284601F0D5FC0BE0600748BF64
:105440004FF4006806D420074EBF4FF4805828461A
:1054500001F0C9FCE00515D52A684FF48071A0055C
:10546000916003D5284601F0BFFC0BE0600548BF02
:1054700048F4005806D420054EBF48F4804828461A
:1054800001F0B3FCE00315D52A684FF48031A00386
:10549000916003D5284601F0A9FC0BE0600348BFEA
:1054A00048F4004806D420034EBF48F4803828460C
:1054B00001F09DFC300748BF5FEAC96104D5296847
:1054C000102048F40078C860700748BF5FEA09718F
:1054D00005D52A680820D0602846FEF7BDFCB00735
:1054E00007D52968C86810F0030F1CBF2846FEF7CF
:1054F00087FC700648BF5FEACA6104D5296810209E
:1055000048F480680861B00648BF5FEA0A7105D5B3
:105510002A6808201061284601F06AFCF00607D5C9
:105520002968086910F0030F1CBF284601F061FCD0
:10553000B00348BF5FEACB6105D52A6810205060F0
:10554000284601F057FCF00348BF5FEA0B7105D510
:105550002A6808205060284601F04DFC300440D5F0
:105560005FEA4B713AD5F00503D5F90748BF48F01B
:105570000108B00503D5B90748BF48F00208700517
:1055800003D5790748BF48F00408300526D517F041
:10559000700F23D007F07007102F0CD0202F0DD0E4
:1055A000302F0ED0402F0FD0502F10D0602F08BFBB
:1055B00048F480780DE048F008080AE048F0100848
:1055C00007E048F0200804E048F0400801E048F017
:1055D00080082868816921F07001816104202968B0
:1055E0004860B8F1000F08D0686A48EA00006862B5
:1055F0002846BDE8F24F01F0FFBBBDE8F18F000087
:1056000074480021C1628162416270477FB501F038
:10561000F5FB00F08BF801F00BFC01F081FC01F0D0
:1056200079FB01F09FFC01F00FFD01F085FD01F019
:1056300091FD01F0E3FD00F0A7FF01F013FE6649C4
:10564000DFF898010FF2C8146AA5624E01F0E0FE7F
:1056500001F010FF65A0FEF7F4FAFEF73FFCFFF73C
:10566000CFFF01F06BFF01F0E4FE306B0521B0FBD2
:10567000F1F101EB8101401A18D1FEF74FFEF06AFB
:10568000012806D1306AFEF7F7FC00F04AF800F076
:1056900043F8706A012809D1D6ED041A96ED011A73
:1056A00096ED000ADFED4A0AFEF7EBFA306B4FF495
:1056B000FA71B0FBF1F14FF4FA7202FB110000280D
:1056C00004BFF06A012806D1306AFEF7D5FC00F06D
:1056D00028F800F021F8306B4FF47A71B0FBF1F14B
:1056E0004FF47A7202FB1100002804BFB06A01284F
:1056F000B9D13069FEF7C0FCCDE902017068FEF750
:10570000BBFCCDE900013068FEF7B6FC02460B4653
:105710002046FEF796FAA6E702460B462846FEF715
:1057200090BACDE90001F069FEF7A6BC80B592B051
:1057300006A83021FFF7C0FB01A81421FFF7BCFB2E
:10574000002000904FF480332548016841F08051DB
:1057500001600021006800F080500090009821480E
:105760000091026842F4804202600122006800F465
:105770008040009006A80099069202214FF4800212
:105780000C910D920421A8220E910F920221042265
:1057900007931091119201F069FF022102910022FA
:1057A00003920F204FF4A051019004914FF48052C6
:1057B0000592052101A801F08BF913B000BD054841
:1057C000016B491CB1F57A4F28BF00210163704776
:1057D0000000000090070020C407002050070020B0
:1057E00040380240007000407047000068656C6CF3
:1057F0006F0D0A00783D25662020202020202020E3
:105800002020793D25662020202020200D0A000040
:10581000783D25662020202020793D256620202007
:105820002020616E676C653D25660D000FF2090151
:105830000120FEF7C7BA000001A0FEF702BA00007F
:1058400063616E207278206F6B0D0A002DE9F843BA
:105850006F4F0646387E0128894614461D4608BF0C
:10586000022028D0012038764CF25038404600F013
:105870003CF801001DD1484622462B461EB9D1B244
:1058800000F08AF80DE0012E03D191B200F06EF81D
:1058900007E0022E03D1114600F05FF801E000F0AE
:1058A0004AF8404600F021F85A490A685208520066
:1058B0000A6000213976BDE8F2835849CA680020A1
:1058C000002A00D4704710B5554A564C0A600C6047
:1058D000C968002948BF012010BD4E48016841F049
:1058E0000041FFE701600020704770B50446484959
:1058F000494E0020C86100F041FE05463068C103F2
:105900000CD514F1010FF9D024B100F037FE401B83
:105910008442F3D2032070BD002070BD3068C107FF
:1059200044BF01203060316811F0F20FF4D000F074
:105930003DF8012070BD30B536490C6824F4407440
:105940000C600D6845F440750D600C6844F001046E
:105950000C6040F8042B036030BD10B500F015F862
:1059600044F4007400F00BF8016010BD10B500F0B5
:105970000CF844F4807400F002F8018010BD14604B
:10598000136843F0010313607047224A136823F43D
:10599000407313601468704730B5FFF7F6FF14606A
:1059A000156845F001051560017030BD1A491848A9
:1059B0000A68D30605D5C26942F01002C2611023FD
:1059C0000B600A68930605D5C26942F00802C261FD
:1059D00020230B600A68530605D5C26942F0040211
:1059E000C26140230B600A68130605D5C26942F004
:1059F0000202C26180230B600A68930705D5C26961
:105A000042F02002C26102200860704700000000DE
:105A100034080020103C02400C3C0240043C024090
:105A200023016745AB89EFCD2DE9F047524E04467F
:105A3000307E0128894608BF02203CD00120307604
:105A40004CF2503A5046FFF750FF804680BB4FF073
:105A5000FF30C9F800002168484D01290DD12069A7
:105A60006168C0B200F029F85046FFF73EFF80465B
:105A7000286820F00400286018E0A76800E07F1C78
:105A8000E068A1680818874210D22169C9B2384677
:105A900000F023F85046FFF728FF5FEA0008286867
:105AA00020F0FA002860EAD0C9F8007000F03BF856
:105AB000002030764046BDE8F08730490A6822F47D
:105AC00040720A6000020B6843F004030B6040F46C
:105AD00080300A6810430860704710B500220B0040
